:0400000081EF00F09C
:10000800975A975A975A975A4000975A4000975AC2
:10001800D659975A975A975A975A975A975A975A12
:10002800975A400040004000975A975A975A975A53
:10003800975A975A975A975A975A975A975A975A30
:10004800355A955A975A975A40004000975A975AE6
:10005800975A975A975A4000975A975A975A975AC1
:10006800DC59975A975A975A975A975A975A975ABC
:100078004F5A545A1556C2544000975A975A975A8D
:10008800975A975A975A975A975A975A975A975AE0
:10009800975A975A975A975A4000975A40004000E3
:1000A800E259975A975A975A975A975A975A975A76
:1000B800975A975A975A975A975A975A975A975AB0
:1000C800975A975A975A975A975A975A975A975AA0
:1000D800975A975A975A975A975A975A975A975A90
:1000E8004000975A975A975A4000400040004000F5
:0E00F800975A975A975A975AFF007CEFADF02F
:10FD7E0000FA5D01000000AE5F010000005A5F0155
:10FD8E000000000000007265010000000000006924
:10FD9E0037AC3168212233B40F14336821A23338C3
:10FDAE0063ED3EDA0F493F5E987B3FDA0FC93F2580
:10FDBE00AC7C3D4712DABD0DF5113E98CA4CBEA97A
:10FDCE00AAAA3E2EBDBBB3DB0F4940414C4552544F
:10FDDE004121204F6273746163756C6F2061202521
:10FDEE002E3166636D2E204D4F544F524553204495
:10FDFE004554454E49444F532E0D0A004D5055362D
:10FE0E003035303A20496E696369616C697A616494
:10FE1E006F20636F7272656374616D656E74652EAB
:10FE2E000D0A004D5055363035303A2043616C691D
:10FE3E0062726163696F6E2066696E616C697A6168
:10FE4E0064612E0D0A004D5055363035303A20453E
:10FE5E0052524F5220616C20696E696369616C6900
:10FE6E007A61722E0D0A00486F6C61204D756E64BA
:10FE7E006F206465736465205049433138463537C9
:10FE8E00513433210D0A00436D6420554152543ACA
:10FE9E0020446573636F6E6F6369646F202800453D
:10FEAE004E4645524D454441443A20506172617070
:10FEBE006C656A696100436D6420554152543A2065
:10FECE00497A717569657264610D0A004D50553A33
:10FEDE002053696E204D6F76696D69656E746F0D76
:10FEEE000A0054454C45464F4E4F3A203938372D6F
:10FEFE003635342D33323100436D64205541525422
:10FF0E003A204164656C616E74650D0A004D505562
:10FF1E003A205441502064657465637461646F0DBA
:10FF2E000A004D50553A205348414B45202D205341
:10FF3E00544F500D0A00436D6420554152543A20DF
:10FF4E00446572656368610D0A00436D6420554116
:10FF5E0052543A20446574656E65720D0A004F6204
:10FF6E006A3A252E3166636D2D444554454E4944FB
:10FF7E004F0050414349454E54453A204A6F686EF2
:10FF8E0020446F6500436D6420554152543A204120
:10FF9E00747261730D0A004D50553A20497A71758D
:10FFAE0069657264610D0A004D50553A20416465D1
:10FFBE006C616E74650D0A00212120414C4552542E
:10FFCE0041202121202020004D50553A20446572B9
:10FFDE00656368610D0A004D50553A204174726197
:10FFEE00730D0A00696E66006E616E00290D0A00BF
:01FFFE000002
:020000040001F9
:100000000501F16BC9C5F2F5CAC5F3F5CBC5F4F529
:10001000CCC5F5F5F5BF11EF80F00FEF80F025EFBF
:1000200080F0010EF16FF2C511F5F3C512F5F4C5BC
:1000300013F5F5C514F5D6ECB1F011C5F2F512C5FE
:10004000F3F513C5F4F514C5F5F5000E0501F76FCA
:10005000000EF66FCCC6E1F5CDC6E2F5F151D8B48D
:1000600034EF80F036EF80F04AEF80F0F151D8A401
:100070003CEF80F03EEF80F044EF80F0000ED76F51
:100080002B0ED66F48EF80F0000ED76F2D0ED66F77
:10009000D6C5F1F5F2C511F5F3C512F5F4C513F5A2
:1000A000F5C514F5A8ECA6F011041210D8A45BEF66
:1000B00080F05DEF80F090EF80F00501F151D8B451
:1000C00064EF80F066EF80F06FEF80F0F1C55EF7CF
:1000D000E107D8A0E207000EF76F010EF66F5E0E83
:1000E000F625116E070EF721126EF20E136EFF0E3B
:1000F000146E45ECB1F00501FD0EE127FF0EE22381
:10010000C7C521F5C8C522F55E0E236E070E246E05
:10011000E1C525F5E2C526F52FECAEF0FDEF84F044
:10012000F2C511F5F3C512F5F4C513F5F5C514F5CF
:10013000A8ECA6F011501210D8A4A1EF80F0A3EF04
:1001400080F0C3EF80F00501F151D8B4AAEF80F040
:10015000ACEF80F0B5EF80F0F1C55EF7E107D8A015
:10016000E207000EF76F010EF66F5E0EF625116EB8
:10017000070EF721126EF60E136EFF0E146E45EC8D
:10018000B1F07BEF80F0000E0501F86F000EF96F03
:10019000800EFA6F3F0EFB6F000EE06F000EDF6FF8
:1001A000F2C511F5F3C512F5F4C513F5F5C514F54F
:1001B000000E156E000E166E000E176E000E186EF5
:1001C000EBECAAF0D8B0E7EF80F0E9EF80F0C9EFF0
:1001D00081F0F6EF80F0E3C5F8F5E4C5F9F5E5C583
:1001E000FAF5E6C5FBF50501DF4BE02BF8C51FF579
:1001F000F9C520F5FAC521F5FBC522F5000E236EE1
:10020000000E246E200E256E410E266E74EC91F0C9
:100210001FC5E3F520C5E4F521C5E5F522C5E6F5E2
:100220000501E351F25D116EE451F359126EE5518F
:10023000F459136EE651F559146E82ECAFF014BE0A
:100240002DEF81F014501310121009E1020E115C11
:10025000D8A02DEF81F02FEF81F0EBEF80F0E3C518
:1002600075F5E4C576F5E5C577F5E6C578F5F2C52B
:1002700079F5F3C57AF5F4C57BF5F5C57CF525EC84
:10028000A6F00501D8A047EF81F049EF81F0EBEF30
:1002900080F0F851F25D116EF951F359126EFA5176
:1002A000F459136EFB51F559146E82ECAFF014BE85
:1002B00067EF81F014501310121007E1020E115C69
:1002C000D8B065EF81F067EF81F0AFEF81F0F8C54E
:1002D000F2F5F9C5F3F5FAC5F4F5FBC5F5F5C9EF87
:1002E00081F0F8C59AF5F9C59BF5FAC59CF5FBC5F3
:1002F0009DF5000E9E6F000E9F6F200EA06F410EA9
:10030000A16F5CEC99F09AC5F8F59BC5F9F59CC511
:10031000FAF59DC5FBF50501DF07D8A0E007F85108
:10032000F25D116EF951F359126EFA51F459136ED0
:10033000FB51F559146E82ECAFF014BEADEF81F0B5
:1003400014501310121007E1020E115CD8B0ABEF7D
:1003500081F0ADEF81F0AFEF81F067EF81F0F2C592
:1003600075F5F3C576F5F4C577F5F5C578F5F8C5F7
:1003700079F5F9C57AF5FAC57BF5FBC57CF525EC71
:10038000A6F00501D8A0C7EF81F0C9EF81F071EFA9
:1003900081F0CDC5D9F5D9C5DAF50601CFBFD3EFC8
:1003A00081F0D5EF81F0DBEF81F0CEC6D2F5CFC67C
:1003B000D3F5E0EF81F0000E0501D36F060ED26F8A
:1003C000D2C5DDF5D3C5DEF50501DD4BDE2B660EAE
:1003D000DA19D8A4EEEF81F0F0EF81F010EF82F09F
:1003E000E0BFF7EF81F0F5EF81F003EF82F0000E50
:1003F000F86F000EF96F800EFA6F3F0EFB6F000E64
:10040000E06F000EDF6F670ED919D8B40AEF82F0E3
:100410000CEF82F010EF82F0DF51DD27E051DE2398
:10042000000EE86F000EE76FF2C5E9F5F3C5EAF5D7
:10043000F4C5EBF5F5C5ECF5F8C5E3F5F9C5E4F55C
:10044000FAC5E5F5FBC5E6F5A2EF82F0E9C59AF538
:10045000EAC59BF5EBC59CF5ECC59DF5F8C59EF589
:10046000F9C59FF5FAC5A0F5FBC5A1F55CEC99F0BF
:100470009AC5B3F59BC5B4F59CC5B5F59DC5B6F554
:10048000FCEC9EF0B3C5EDF5B4C5EEF5B5C5EFF5E2
:10049000B6C5F0F5EDC56DF5EEC56EF5EFC56FF5BA
:1004A000F0C570F5A1ECA5F06DC5DBF56EC5DCF50A
:1004B000E9C575F5EAC576F5EBC577F5ECC578F5D0
:1004C000EDC523F5EEC524F5EFC525F5F0C526F5F8
:1004D000F8C51FF5F9C520F5FAC521F5FBC522F5CC
:1004E00074EC91F01FC579F520C57AF521C57BF52F
:1004F00022C57CF5BFECB0F075C5E9F576C5EAF527
:1005000077C5EBF578C5ECF5F8C59AF5F9C59BF517
:10051000FAC59CF5FBC59DF5000E05019E6F000E0A
:100520009F6F200EA06F410EA16F5CEC99F09AC5F1
:10053000F8F59BC5F9F59CC5FAF59DC5FBF50501D8
:10054000E74BE82BDD51E75DE851800ACE6FDE51C5
:10055000800ACE59D8A0AFEF82F0B1EF82F026EF3B
:1005600082F0F8C51FF5F9C520F5FAC521F5FBC5E0
:1005700022F5000E236E000E246EA00E256E400E96
:10058000266E74EC91F01FC5EDF520C5EEF521C582
:10059000EFF522C5F0F5E9C575F5EAC576F5EBC5C9
:1005A00077F5ECC578F5EDC579F5EEC57AF5EFC5CB
:1005B0007BF5F0C57CF525ECA6F00501D8B0E3EF9E
:1005C00082F0E5EF82F0EFEF82F0000EED6F000EAB
:1005D000EE6F000EEF6F000EF06F18EF83F0E9C5BD
:1005E00011F5EAC512F5EBC513F5ECC514F5EDC52B
:1005F00015F5EEC516F5EFC517F5F0C518F5EBECDA
:10060000AAF0D8A006EF83F008EF83F018EF83F08C
:100610000501DBB10EEF83F010EF83F018EF83F0EC
:10062000000EED6F000EEE6F000EEF6F000EF06F1C
:10063000F2C56DF5F3C56EF5F4C56FF5F5C570F54A
:10064000EDC571F5EEC572F5EFC573F5F0C574F53E
:1006500018EC8FF06DC5E9F56EC5EAF56FC5EBF5E1
:1006600070C5ECF5E9C575F5EAC576F5EBC577F526
:10067000ECC578F5000E236E000E246E200E256E5C
:10068000410E266EE3C51FF5E4C520F5E5C521F54D
:10069000E6C522F574EC91F01FC579F520C57AF511
:1006A00021C57BF522C57CF525ECA6F00501D8A077
:1006B0005CEF83F05EEF83F086EF83F0DF4BE02B9F
:1006C000E3C51FF5E4C520F5E5C521F5E6C522F52E
:1006D000000E236E000E246E200E256E410E266E37
:1006E00074EC91F01FC5E3F520C5E4F521C5E5F5EF
:1006F00022C5E6F5660E0501DA19D8A482EF83F06B
:1007000084EF83F086EF83F0DD4BDE2BE3C5F8F555
:10071000E4C5F9F5E5C5FAF5E6C5FBF5DFC5D0F5A5
:10072000E0C5D1F5D86B000ED56F000ED46F000E6A
:10073000E86F000EE76F83EF84F0E9C59AF5EAC52C
:100740009BF5EBC59CF5ECC59DF5F8C59EF5F9C587
:100750009FF5FAC5A0F5FBC5A1F55CEC99F09AC52B
:10076000B3F59BC5B4F59CC5B5F59DC5B6F5FCECD8
:100770009EF0B3C5EDF5B4C5EEF5B5C5EFF5B6C55C
:10078000F0F5EDC56DF5EEC56EF5EFC56FF5F0C58D
:1007900070F5A1ECA5F005016EBFDAEF83F06E51A4
:1007A00007E10A0E6D5DD8B0D8EF83F0DAEF83F081
:1007B000EAEF83F0EDC56DF5EEC56EF5EFC56FF5AB
:1007C000F0C570F5A1ECA5F06DC5DBF56EC5DCF5E7
:1007D000EEEF83F0000EDC6F090EDB6F0501D851E0
:1007E000D8A4F5EF83F0F7EF83F01FEF84F0D1BFCB
:1007F000FEEF83F0FCEF83F01FEF84F05E0EF62532
:10080000D96E070EF721DA6E2E0EDF6EF64BF72B40
:10081000E107D8A0E207010ED86F1FEF84F05E0E4B
:10082000F625D96E070EF721DA6E300EDF6EF64B25
:10083000F72BE107D8A0E207D407D8A0D507D451F9
:10084000D511D8A426EF84F028EF84F00FEF84F0C0
:100850005E0EF625D96E070EF721DA6EDB51300FEA
:10086000DF6EF64BF72BE107D8A0E207E9C575F577
:10087000EAC576F5EBC577F5ECC578F5EDC523F55A
:10088000EEC524F5EFC525F5F0C526F5F8C51FF52D
:10089000F9C520F5FAC521F5FBC522F574EC91F0F8
:1008A0001FC579F520C57AF521C57BF522C57CF5F4
:1008B000BFECB0F075C5E9F576C5EAF577C5EBF59F
:1008C00078C5ECF5F8C59AF5F9C59BF5FAC59CF520
:1008D000FBC59DF5000E05019E6F000E9F6F200E5B
:1008E000A06F410EA16F5CEC99F09AC5F8F59BC51D
:1008F000F9F59CC5FAF59DC5FBF50501D007D8A013
:10090000D107E74BE82BDD51E75DE851800ACE6F58
:10091000DE51800ACE59D8B090EF84F092EF84F087
:10092000A0EF84F0F7BF9EEF84F0F75109E14B0E82
:10093000F65DD8A09EEF84F0A0EF84F09DEF83F0E9
:10094000000EE86F4F0EE76F5E0EE725D96E070EBB
:10095000E821DA6EDF6A5E0ECE6F070ECF6FF651BA
:10096000CE5FF751CF5BE751CE25116EE851CF2115
:10097000126E5E0E136E070E146EF6C515F5F7C5F2
:1009800016F528ECB0F00501F651E75DF66FF7516A
:10099000E859F76FF151D8A4D0EF84F0D3EF84F089
:1009A000010ED4EF84F0000EE76FE86BF151D8B47C
:1009B000DCEF84F0DEEF84F0E9EF84F0F607D8A0F6
:1009C000F7075E0EF625D96E070EF721DA6EF1C530
:1009D000DFF4E751E15FE851E25BC7C521F5C8C527
:1009E00022F55E0EF625236E070EF721246EE1C573
:1009F00025F5E2C526F52FECAEF01200BBC5E5F5F6
:100A0000BCC5E6F5BDC5E7F5BEC5E8F50501E8BF1F
:100A10000CEF85F00FEF85F0010E10EF85F0000E62
:100A2000DB6FE89F800EE75D4C0EE859D8A01BEF06
:100A300085F01DEF85F086EF85F0BBC511F5BCC5CF
:100A400012F5BDC513F5BEC514F5A8ECA6F01150FE
:100A50001210D8A42EEF85F030EF85F03AEF85F034
:100A6000BBC5BBF5BCC5BCF5BDC5BDF5BEC5BEF5BA
:100A7000C1EF88F0B90EF66EFD0EF76E000EF86E3F
:100A80000900F5C46DF50900F5C46EF50900F5C45B
:100A90006FF50A00F5C470F5000E0501716F000EC8
:100AA000726F800E736F030E746F18EC8FF06DC54C
:100AB000E1F56EC5E2F56FC5E3F570C5E4F5050136
:100AC000DB51D8A466EF85F068EF85F072EF85F012
:100AD000E1C5BBF5E2C5BCF5E3C5BDF5E4C5BEF5B2
:100AE000C1EF88F0E1C511F5E2C512F5E3C513F5D4
:100AF000E4C514F5D6ECB1F011C5BBF512C5BCF5D3
:100B000013C5BDF514C5BEF5C1EF88F0E00EE75D75
:100B10003E0EE859D8B08FEF85F091EF85F0A1EF48
:100B200085F0800EE75D390EE859D8B09AEF85F070
:100B30009CEF85F09EEF85F030EF85F0E069DDEF0A
:100B400086F0BBC5B3F5BCC5B4F5BDC5B5F5BEC52E
:100B5000B6F5F2ECB1F0B3C5BBF5B4C5BCF5B5C59F
:100B6000BDF5B6C5BEF5980E0501E75D3F0EE85927
:100B7000D8B0BDEF85F0BFEF85F061EF86F0300EA5
:100B8000E75D3F0EE859D8B0C8EF85F0CAEF85F0B1
:100B90001EEF86F0E06B000E716F000E726F800E1C
:100BA000736FBF0E746F000E236E000E246E000E66
:100BB000256E400E266EBBC51FF5BCC520F5BDC514
:100BC00021F5BEC522F574EC91F01FC56DF520C569
:100BD0006EF521C56FF522C570F518EC8FF06DC567
:100BE0009AF56EC59BF56FC59CF570C59DF5000E19
:100BF0000501716F000E726F000E736F400E746FFF
:100C0000BBC56DF5BCC56EF5BDC56FF5BEC570F550
:100C100018EC8FF06DC59EF56EC59FF56FC5A0F5FC
:100C200070C5A1F55CEC99F09AC5BBF59BC5BCF508
:100C30009CC5BDF59DC5BEF5DDEF86F0010EE06FEC
:100C4000000E716F000E726F800E736FBF0E746FA7
:100C5000BBC56DF5BCC56EF5BDC56FF5BEC570F500
:100C600018EC8FF06DC59AF56EC59BF56FC59CF5B8
:100C700070C59DF5000E0501716F000E726F800E3C
:100C8000736F3F0E746FBBC56DF5BCC56EF5BDC50A
:100C90006FF5BEC570F518EC8FF06DC59EF56EC58D
:100CA0009FF56FC5A0F570C5A1F55CEC99F09AC5EC
:100CB000BBF59BC5BCF59CC5BDF59DC5BEF5DDEF7F
:100CC00086F01C0EE75D400EE859D8B06AEF86F05A
:100CD0006CEF86F0C1EF86F0020EE06F000E716FD0
:100CE000000E726FC00E736FBF0E746FBBC56DF5D3
:100CF000BCC56EF5BDC56FF5BEC570F518EC8FF0BF
:100D00006DC59AF56EC59BF56FC59CF570C59DF5D3
:100D1000000E0501716F000E726F800E736F3F0E33
:100D2000746F000E236E000E246EC00E256E3F0EF3
:100D3000266EBBC51FF5BCC520F5BDC521F5BEC5DA
:100D400022F574EC91F01FC56DF520C56EF521C537
:100D50006FF522C570F518EC8FF06DC59EF56EC568
:100D60009FF56FC5A0F570C5A1F55CEC99F09AC52B
:100D7000BBF59BC5BCF59CC5BDF59DC5BEF5DDEFBE
:100D800086F0030EE06F000E9A6F000E9B6F800ED0
:100D90009C6FBF0E9D6FBBC59EF5BCC59FF5BDC5C5
:100DA000A0F5BEC5A1F55CEC99F09AC5BBF59BC555
:100DB000BCF59CC5BDF59DC5BEF5BBC51FF5BCC545
:100DC00020F5BDC521F5BEC522F5BBC523F5BCC5C3
:100DD00024F5BDC525F5BEC526F574EC91F01FC5FB
:100DE000E1F520C5E2F521C5E3F522C5E4F5E1C54D
:100DF0001FF5E2C520F5E3C521F5E4C522F5E1C5FF
:100E000023F5E2C524F5E3C525F5E4C526F574EC24
:100E100091F01FC5DCF520C5DDF521C5DEF522C545
:100E2000DFF50D0E0501716FF50E726F110E736F08
:100E30003E0E746F250E236EAC0E246E7C0E256E56
:100E40003D0E266EDCC51FF5DDC520F5DEC521F59E
:100E5000DFC522F574EC91F01FC56DF520C56EF568
:100E600021C56FF522C570F518EC8FF06DC5D3F56F
:100E70006EC5D4F56FC5D5F570C5D6F5A90E0501BB
:100E8000716FAA0E726FAA0E736F3E0E746FDCC57F
:100E900023F5DDC524F5DEC525F5DFC526F5D3C56B
:100EA0001FF5D4C520F5D5C521F5D6C522F574ECBE
:100EB00091F01FC56DF520C56EF521C56FF522C5F2
:100EC00070F518EC8FF06DC5BFF56EC5C0F56FC538
:100ED000C1F570C5C2F5BFC51FF5C0C520F5C1C5B8
:100EE00021F5C2C522F5E1C523F5E2C524F5E3C528
:100EF00025F5E4C526F574EC91F01FC5CBF520C5AA
:100F0000CCF521C5CDF522C5CEF5980E0501716F42
:100F1000CA0E726F4C0E736FBE0E746F470E236E47
:100F2000120E246EDA0E256EBD0E266EDCC51FF580
:100F3000DDC520F5DEC521F5DFC522F574EC91F0A5
:100F40001FC56DF520C56EF521C56FF522C570F57D
:100F500018EC8FF06DC5D3F56EC5D4F56FC5D5F51A
:100F600070C5D6F5D3C51FF5D4C520F5D5C521F577
:100F7000D6C522F5DCC523F5DDC524F5DEC525F58E
:100F8000DFC526F574EC91F01FC5CFF520C5D0F56F
:100F900021C5D1F522C5D2F50501E0BFD4EF87F018
:100FA000D2EF87F01CEF88F0BBC523F5BCC524F554
:100FB000BDC525F5BEC526F5CFC571F5D0C572F501
:100FC000D1C573F5D2C574F5CBC56DF5CCC56EF53D
:100FD000CDC56FF5CEC570F518EC8FF06DC51FF55A
:100FE0006EC520F56FC521F570C522F574EC91F042
:100FF0001FC5D7F520C5D8F521C5D9F522C5DAF525
:10100000BBC575F5BCC576F5BDC577F5BEC578F52C
:10101000D7C579F5D8C57AF5D9C57BF5DAC57CF59C
:10102000BFECB0F075C5BBF576C5BCF577C5BDF5B1
:1010300078C5BEF5C1EF88F0BBC523F5BCC524F566
:10104000BDC525F5BEC526F5CFC571F5D0C572F570
:10105000D1C573F5D2C574F5CBC56DF5CCC56EF5AC
:10106000CDC56FF5CEC570F518EC8FF06DC51FF5C9
:101070006EC520F56FC521F570C522F574EC91F0B1
:101080001FC5D7F520C5D8F521C5D9F522C5DAF594
:101090000501E051040D9D0EF324F66EFD0EF420C3
:1010A000F76EF86A000EF8220900F5C479F5090018
:1010B000F5C47AF50900F5C47BF50A00F5C47CF5A2
:1010C000D7C575F5D8C576F5D9C577F5DAC578F5FC
:1010D000BFECB0F075C5C3F576C5C4F577C5C5F5E9
:1010E00078C5C6F5BBC579F5BCC57AF5BDC57BF538
:1010F000BEC57CF5C3C575F5C4C576F5C5C577F520
:10110000C6C578F5BFECB0F075C5C7F576C5C8F5AE
:1011100077C5C9F578C5CAF50501E051040DAD0ED6
:10112000F324F66EFD0EF420F76EF86A000EF82236
:101130000900F5C475F50900F5C476F50900F5C494
:1011400077F50A00F5C478F5C7C579F5C8C57AF50D
:10115000C9C57BF5CAC57CF5BFECB0F075C5E1F536
:1011600076C5E2F577C5E3F578C5E4F50501DB5111
:10117000D8A4BDEF88F0BFEF88F072EF85F068EF7C
:1011800085F01200A4ECB2F0D68EE20E116E660E5F
:10119000126E010E136E2DECB3F00EECB5F0090ECD
:1011A0000601336F1E0E326FE40EE82EFED7322F8B
:1011B000FCD7332FFAD70000F2ECA4F0DBECB3F04D
:1011C000000E216E000E50ECB0F0800E206EFF0E6F
:1011D000216E9BECAEF0010E216E000E50ECB0F0D3
:1011E000AD0E206EFE0E216E9BECAEF0110E0601D0
:1011F000336F3C0E326FCB0EE82EFED7322FFCD76A
:10120000332FFAD7E0ECA9F00009D8B40AEF89F03F
:101210000CEF89F029EF89F00A0E136EFE0E146EA2
:10122000BAECADF082EC97F0310E136EFE0E146E38
:10123000BAECADF0520E0601336F2B0E326F000E7A
:10124000E82EFED7322FFCD7332FFAD7000031EF2C
:1012500089F0540E136EFE0E146EBAECADF02FEF43
:1012600089F0DFECB4F08DECB2F008ECB5F0090ECB
:101270000601336F1E0E326FE40EE82EFED7322FBA
:10128000FCD7332FFAD70000750E136EFE0E146EC6
:10129000BAECADF0000E0601776F000E766F090E06
:1012A0000601336F1E0E326FE40EE82EFED7322F8A
:1012B000FCD7332FFAD700000601764B772B7751F6
:1012C00009E1320E765DD8A068EF89F06AEF89F007
:1012D0004FEF89F0DC51D8B470EF89F072EF89F0EC
:1012E0002BEF8AF0DC6B10EF8AF0010E0501726FB4
:1012F000770E716F1DECB4F0060E136EFF0E146EB8
:10130000BAECADF00601DB6B2BEF8AF0010E0501A4
:10131000726F770E716F28ECB4F0930E136EFF0EA0
:10132000146EBAECADF0010E0601DB6F2BEF8AF004
:101330000BECB5F0580E136EFF0E146EBAECADF058
:1013400082EF89F0010E0501726F770E716F12EC5A
:10135000B4F0C40E136EFE0E146EBAECADF082EF54
:1013600089F0010E0501726F770E716F07ECB4F012
:10137000440E136EFF0E146EBAECADF082EF89F0DE
:10138000DBECB3F0000E216E000E50ECB0F0800EDE
:10139000206EFF0E216E9BECAEF0010E216E000E52
:1013A00050ECB0F0AD0E206EFE0E216E9BECAEF058
:1013B000F40E0601336F820E326F050EE82EFED753
:1013C000322FFCD7332FFAD7DBECB3F0000E216EAF
:1013D000000E50ECB0F0800E206EFF0E216E9BECE4
:1013E000AEF0010E216E000E50ECB0F0AD0E206E8E
:1013F000FE0E216E9BECAEF02BEF8AF0950E136E75
:10140000FE0E146EBAECADF00601DD519AECB0F0B0
:10141000FA0E136EFF0E146EBAECADF082EF89F087
:10142000DD51420AD8B486EF89F0040AD8B475EFCA
:1014300089F00A0AD8B4A2EF89F01C0AD8B4C0EF28
:1014400089F0020AD8B4B1EF89F0010AD8B498EF54
:1014500089F0FEEF89F00601D55109E1640ED45DF3
:10146000D8A035EF8AF037EF8AF01CEF8BF0000E32
:10147000D56F000ED46FAE0E0501B36F070EB46FBB
:1014800088EC93F0AE0E0501F96F070EFA6F25ECAC
:101490009BF00601786FDC51D8A451EF8AF053EF2E
:1014A0008AF095EF8AF0020E7819D8A45AEF8AF0E4
:1014B0005CEF8AF060EF8AF0010EDB6F95EF8AF047
:1014C0007851D8B466EF8AF068EF8AF094EF8AF02A
:1014D0007805D8B46EEF8AF070EF8AF094EF8AF056
:1014E000030E7819D8B477EF8AF079EF8AF094EF89
:1014F0008AF0040E7819D8B480EF8AF082EF8AF06F
:1015000094EF8AF0090E7819D8B489EF8AF08BEF3E
:101510008AF094EF8AF00A0E7819D8A492EF8AF034
:1015200094EF8AF095EF8AF0DB6BDC51D8A49BEF47
:101530008AF09DEF8AF01CEF8BF0F7EF8AF0010E36
:101540000501726F770E716F1DECB4F0B60E136E5D
:10155000FF0E146EBAECADF01CEF8BF0010E05011E
:10156000726F770E716F28ECB4F0E50E136EFF0EFC
:10157000146EBAECADF01CEF8BF0010E0501726F2A
:10158000770E716F12ECB4F0A50E136EFF0E146E91
:10159000BAECADF01CEF8BF0010E0501726F770E07
:1015A000716F07ECB4F0D60E136EFF0E146EBAEC2A
:1015B000ADF01CEF8BF00BECB5F0300E136EFF0EA0
:1015C000146EBAECADF01CEF8BF01B0E136EFF0E19
:1015D000146EBAECADF01CEF8BF00BECB5F0DA0E3C
:1015E000136EFE0E146EBAECADF01CEF8BF078515A
:1015F000326F336B3351000AD8B401EF8BF0EDEF4B
:101600008AF03251010AD8B49FEF8AF0030AD8B4A5
:10161000AEEF8AF0010AD8B4BDEF8AF0070AD8B459
:10162000CCEF8AF00D0AD8B4DBEF8AF0030AD8B405
:10163000E5EF8AF0EDEF8AF00601D44BD52BDB51B4
:10164000D8B425EF8BF027EF8BF0FDEF8BF0D35163
:1016500009E1320ED25DD8A030EF8BF032EF8BF083
:10166000F8EF8BF0000ED36F000ED26F6EECA3F08C
:10167000B3C574F6B4C575F617ECB5F00009D8A477
:1016800044EF8BF046EF8BF0F8EF8BF074C611F55A
:1016900075C612F5136A146A000ECAECA1F011C5E2
:1016A000A5F612C5A6F613C5A7F614C5A8F6000E32
:1016B0000501756F000E766F000E776F000E786F64
:1016C000A5C679F5A6C67AF5A7C67BF5A8C67CF5AA
:1016D00025ECA6F00501D8B070EF8BF072EF8BF01F
:1016E000F8EF8BF0000E756F000E766F200E776F9F
:1016F000410E786FA5C679F5A6C67AF5A7C67BF523
:10170000A8C67CF525ECA6F00501D8A08AEF8BF0E1
:101710008CEF8BF0F8EF8BF00BECB5F00601DB6B88
:10172000340E156F060E166FD90E176FFD0E186F5B
:10173000A5C619F6A6C61AF6A7C61BF6A8C61CF6B5
:1017400000ECB0F0340E136E060E146EBAECADF071
:10175000DBECB3F0000E216E000E50ECB0F0C60EC4
:10176000206EFF0E216E9BECAEF0340E0601156F5D
:10177000060E166F6C0E176FFF0E186FA5C619F6C2
:10178000A6C61AF6A7C61BF6A8C61CF600ECB0F053
:10179000010E216E000E50ECB0F0340E206E060EDD
:1017A000216E9BECAEF0A30E0601336F570E326F25
:1017B000020EE82EFED7322FFCD7332FFAD70000C7
:1017C000DBECB3F0000E216E000E50ECB0F0800E9A
:1017D000206EFF0E216E9BECAEF0010E216E000E0E
:1017E00050ECB0F0AD0E206EFE0E216E9BECAEF014
:1017F0000601D24BD32B6AEF89F0000ED36F000E97
:10180000D26F6AEF89F081EF00F0EDC511F5EEC5FA
:1018100012F5EFC513F5F0C514F5A8ECA6F01150BC
:101820001210D8B416EF8CF018EF8CF02BEF8CF070
:10183000E9C511F5EAC512F5EBC513F5ECC514F5CC
:10184000A8ECA6F011501210D8A429EF8CF02BEFC1
:101850008CF047EF8CF0EDC56DF5EEC56EF5EFC57C
:101860006FF5F0C570F5E9C571F5EAC572F5EBC520
:1018700073F5ECC574F518EC8FF06DC5E9F56EC520
:10188000EAF56FC5EBF570C5ECF517EF8FF0EDC518
:1018900010F6EEC511F6EFC512F6F0C513F6E9C560
:1018A00014F6EAC515F6EBC516F6ECC517F6800E6C
:1018B0000601121909E13F0E131910111111D8A4D4
:1018C00064EF8CF066EF8CF07AEF8CF0E9C5BBF535
:1018D000EAC5BCF5EBC5BDF5ECC5BEF5FEEC84F084
:1018E000BBC5E9F5BCC5EAF5BDC5EBF5BEC5ECF574
:1018F00017EF8FF010C6F1F511C6F2F512C6F3F529
:1019000013C6F4F51F0E8BEF8CF00501D890F4335D
:10191000F333F233F133E82E85EF8CF0020EF1173A
:1019200014C6F5F515C6F6F516C6F7F517C6F8F59B
:10193000200EA0EF8CF0D890F833F733F633F53360
:10194000E82E9BEF8CF0F551010BF1110601186F99
:10195000139F179F1451151116111711D8A4B3EF27
:101960008CF0B5EF8CF0EAEF8CF0D7EF8CF0E9C596
:10197000E9F5EAC5EAF5EBC5EBF5ECC5ECF517EFD3
:101980008FF0DB0E0501E96F0F0EEA6F490EEB6F6A
:10199000400EEC6F17EF8FF0DB0E0501E96F0F0EB5
:1019A000EA6F490EEB6FC00EEC6F17EF8FF0185116
:1019B000000AD8B4B7EF8CF0010AD8B4B7EF8CF0B6
:1019C000030AD8B4C1EF8CF0010AD8B4CCEF8CF084
:1019D000EAEF8CF01051111112111311D8A4F3EF8A
:1019E0008CF0F5EF8CF012EF8DF018B1FAEF8CF06F
:1019F000FCEF8CF007EF8DF0DB0E0501E96F0F0EA9
:101A0000EA6FC90EEB6F3F0EEC6F17EF8FF0DB0E36
:101A10000501E96F0F0EEA6FC90EEB6FBF0EEC6F99
:101A200017EF8FF0800E121909E17F0E13191011B4
:101A30001111D8A41EEF8DF020EF8DF0AEEF8DF0D8
:101A4000800E161909E17F0E171914111511D8A46B
:101A50002CEF8DF02EEF8DF09BEF8DF05CEF8DF085
:101A6000DB0E0501E96F0F0EEA6F490EEB6F3F0EBB
:101A7000EC6F17EF8FF0DB0E0501E96F0F0EEA6FC9
:101A8000490EEB6FBF0EEC6F17EF8FF0E40E050100
:101A9000E96FCB0EEA6F160EEB6F400EEC6F17EF8F
:101AA0008FF0E40E0501E96FCB0EEA6F160EEB6FB7
:101AB000C00EEC6F17EF8FF01851000AD8B430EF5A
:101AC0008DF0010AD8B43BEF8DF0030AD8B446EF8D
:101AD0008DF0010AD8B451EF8DF0AEEF8DF0000E0D
:101AE0000501E96F000EEA6F000EEB6F000EEC6F60
:101AF00017EF8FF0000E0501E96F000EEA6F000E80
:101B0000EB6F800EEC6F17EF8FF0DB0E0501E96FC6
:101B10000F0EEA6F490EEB6F400EEC6F17EF8FF070
:101B2000DB0E0501E96F0F0EEA6F490EEB6FC00E79
:101B3000EC6F17EF8FF01851000AD8B46FEF8DF0EB
:101B4000010AD8B47AEF8DF0030AD8B485EF8DF08E
:101B5000010AD8B490EF8DF0AEEF8DF0000E102595
:101B60000501F16F000E060111210501F26F000E53
:101B7000060112210501F36F0D0E06011321050167
:101B8000F46F060114510501F15D060115510501BF
:101B9000F259060116510501F359060117510501C5
:101BA000F459D8A0D6EF8DF0D8EF8DF0E7EF8DF097
:101BB000800E0601161909E17F0E1719141115116F
:101BC000D8A4E5EF8DF0E7EF8DF005EF8EF006017C
:101BD00018B1EDEF8DF0EFEF8DF0FAEF8DF0DB0E39
:101BE0000501E96F0F0EEA6FC90EEB6F3F0EEC6F48
:101BF00017EF8FF0DB0E0501E96F0F0EEA6FC90ECC
:101C0000EB6FBF0EEC6F17EF8FF018A30AEF8EF09B
:101C10000CEF8EF041EF8EF0000E14250501F16FF0
:101C2000000E060115210501F26F000E06011621B6
:101C30000501F36F0D0E060117210501F46F060172
:101C400010510501F15D060111510501F25906011E
:101C500012510501F359060113510501F459D8B089
:101C600034EF8EF036EF8EF041EF8EF0000E06016D
:101C70000C6F000E0D6F000E0E6F000E0F6F07EF52
:101C80008FF0E9C59AF5EAC59BF5EBC59CF5ECC567
:101C90009DF5EDC59EF5EEC59FF5EFC5A0F5F0C528
:101CA000A1F55CEC99F09AC5B3F59BC5B4F59CC55C
:101CB000B5F59DC5B6F5F2ECB1F0B3C500F6B4C507
:101CC00001F6B5C502F6B6C503F600C6BBF501C6FA
:101CD000BCF502C6BDF503C6BEF5FEEC84F0BBC57F
:101CE0000CF6BCC50DF6BDC50EF6BEC50FF607EF6A
:101CF0008FF00CC6E9F50DC6EAF50EC6EBF50FC67A
:101D0000ECF517EF8FF00CC611F50DC612F50EC6E7
:101D100013F50FC614F5D6ECB1F011C5E9F512C5EF
:101D2000EAF513C5EBF514C5ECF517EF8FF02E0EA1
:101D30000501716FBD0E726FBB0E736F330E746F42
:101D40000CC66DF50DC66EF50EC66FF50FC670F5B7
:101D500018EC8FF06DC504F66EC505F66FC506F676
:101D600070C507F6DB0E0501756F0F0E766F490E15
:101D7000776F400E786F04C679F505C67AF506C60A
:101D80007BF507C67CF5BFECB0F075C5E9F576C507
:101D9000EAF577C5EBF578C5ECF517EF8FF02E0E69
:101DA0000501716FBD0E726FBB0E736F330E746FD2
:101DB0000CC66DF50DC66EF50EC66FF50FC670F547
:101DC00018EC8FF06DC508F66EC509F66FC50AF6FA
:101DD00070C50BF608C66DF509C66EF50AC66FF537
:101DE0000BC670F5DB0E0501716F0F0E726F490E99
:101DF000736FC00E746F18EC8FF06DC5E9F56EC58A
:101E0000EAF56FC5EBF570C5ECF517EF8FF006013D
:101E10001851000AD8B479EF8EF0010AD8B483EFD4
:101E20008EF0030AD8B497EF8EF0CFEF8EF0120049
:101E300005017051800B2F6E70517025316E6FAFA0
:101E400024EF8FF026EF8FF027EF8FF031803150A5
:101E5000D8B42DEF8FF02FEF8FF043EF8FF03128B4
:101E6000D8A435EF8FF037EF8FF03FEF8FF0000EF3
:101E70006D6F000E6E6F000E6F6F000E706F6F8FC4
:101E8000706B4BEF8FF0000E6D6F000E6E6F000EDB
:101E90006F6F000E706F7451800B306E2F503018C2
:101EA000D8B455EF8FF057EF8FF058EF8FF02F8C9D
:101EB00074517425306E73AF60EF8FF062EF8FF066
:101EC00063EF8FF030803050D8B469EF8FF06BEF54
:101ED0008FF07FEF8FF03028D8A471EF8FF073EF81
:101EE0008FF07BEF8FF0000E716F000E726F000E9F
:101EF000736F000E746F738F746B87EF8FF0000E2B
:101F0000716F000E726F000E736F000E746F3150A0
:101F1000305CD8B08EEF8FF090EF8FF0B7EF8FF08E
:101F20002FAC95EF8FF097EF8FF099EF8FF0800E39
:101F30002F1A31C532F530C531F532C530F56DC5D2
:101F400032F571C56DF532C571F56EC532F572C5E4
:101F50006EF532C572F56FC532F573C56FF532C5D2
:101F600073F570C532F574C570F532C574F5326A13
:101F7000315030C52BF52C6A2B5E000E2C5A2CBE2E
:101F8000CBEF8FF02C5009E11A0E2B5CD8A0CBEFD1
:101F90008FF0CDEF8FF004EF90F06D516E116F1157
:101FA0007011D8A4D6EF8FF0D9EF8FF0010EDAEFD1
:101FB0008FF0000E326E000E6D6F000E6E6F000E11
:101FC0006F6F000E706F30C531F50DEF90F032A0DD
:101FD000ECEF8FF0EEEF8FF0F4EF8FF0D89032301F
:101FE0000109326EF6EF8FF0D89032326DA1FBEF1F
:101FF0008FF0FDEF8FF0FEEF8FF0328E7035703383
:102000006F336E336D33312A3050315CD8A00BEF13
:1020100090F00DEF90F0E7EF8FF02FBC12EF90F003
:1020200014EF90F054EF90F03150D8A41AEF90F0E4
:102030001CEF90F026EF90F0000E6D6F000E6E6FAB
:10204000000E6F6F000E706F73EF91F071516D277E
:1020500072516E2373516F237451702370A133EF4B
:1020600090F035EF90F0E1EF90F032A03AEF90F081
:102070003CEF90F042EF90F0D89032300109326E90
:1020800044EF90F0D89032326DA149EF90F04BEFD1
:1020900090F04CEF90F0328E703570336F336E33BA
:1020A0006D33312AE1EF90F071516D5D72516E59CF
:1020B00073516F597051800A2B6E7451800A2B58DE
:1020C000D8B065EF90F067EF90F092EF90F06D511F
:1020D000715D2B6E6E5172592C6E6F5173592D6E4E
:1020E000705174592E6EFF0E2B246D6FFF0E2C2035
:1020F0006E6FFF0E2D206F6FFF0E2E20706F800E03
:102100002F1A326C3250D8A488EF90F08AEF90F0FA
:102110009AEF90F0010E6D27000E6E236F2370234F
:102120009AEF90F071516D5F72516E5B73516F5BFE
:102130007451705B6D516E116F117011D8A4A3EFC3
:1021400090F0A5EF90F0DAEF90F03250D8A4ABEF1A
:1021500090F0ADEF90F0DAEF90F0000E6D6F000EA2
:102160006E6F000E6F6F000E706F73EF91F0D8906E
:102170006D376E376F37703732AEC1EF90F0C3EF07
:1021800090F0C4EF90F06D8132A0C9EF90F0CBEFEA
:1021900090F0CFEF90F0D8803236D1EF90F0D89019
:1021A00032363150D8B4D7EF90F0D9EF90F0DAEF63
:1021B00090F031066FAFDFEF90F0E1EF90F0B7EF06
:1021C00090F0306A32AEE7EF90F0E9EF90F001EF77
:1021D00091F032C52BF57F0E2B16D8B4F2EF90F0AC
:1021E000F4EF90F0F8EF90F0010E306E01EF91F007
:1021F0006DA1FDEF90F0FFEF90F001EF91F0F4EFA3
:1022000090F03050D8B407EF91F009EF91F034EF2F
:1022100091F0010E6D27000E6E236F23702370A1C5
:1022200014EF91F016EF91F034EF91F06DC52BF5AE
:102230006EC52CF56FC52DF570C52EF52E342E32DA
:102240002D322C322B322BC56DF52CC56EF52DC5DC
:102250006FF52EC570F53128D8B431EF91F033EF1A
:1022600091F034EF91F0312A3128D8B43AEF91F05F
:102270003CEF91F044EF91F03150D8A442EF91F04F
:1022800044EF91F055EF91F0000E6D6F000E6E6F00
:10229000000E6F6F000E706F3150D8A452EF91F0A6
:1022A00054EF91F055EF91F02F6A31A05AEF91F071
:1022B0005CEF91F05FEF91F06F8F60EF91F06F9FA7
:1022C000D8903130706F2FAE68EF91F06AEF91F0D7
:1022D0006BEF91F0708F6DC56DF56EC56EF56FC5C6
:1022E0006FF570C570F512002250800B0501606F0C
:1022F00022502224666F21AE80EF91F082EF91F0A0
:1023000083EF91F066816651D8B489EF91F08BEF3D
:1023100091F09EEF91F06629D8A491EF91F093EFA0
:1023200091F09BEF91F0000E1F6E000E206E000EDC
:10233000216E000E226E218EA6EF91F0000E1F6E10
:10234000000E206E000E216E000E226E2650800BB5
:10235000601B26502624616F25AEB1EF91F0B3EFDC
:1023600091F0B4EF91F061816151D8B4BAEF91F07E
:10237000BCEF91F0CFEF91F06129D8A4C2EF91F0BA
:10238000C4EF91F0CCEF91F0000E236E000E246E9E
:10239000000E256E000E266E258ED7EF91F0000EF2
:1023A000236E000E246E000E256E000E266E615107
:1023B000D8B4DDEF91F0DFEF91F0E7EF91F06651E7
:1023C000D8A4E5EF91F0E7EF91F0F1EF91F0000E76
:1023D0001F6E000E206E000E216E000E226E87EF23
:1023E00093F025501F02F3C46BF5F4C46CF56B51E8
:1023F000626F636B646B656B6C51676F686B696B65
:102400006A6B24502002F3C46BF5F4C46CF56B5175
:102410006227000E6323642365236C516727000E37
:10242000682369236A2323502102F3C46BF5F4C4A3
:102430006CF56B516227000E6323642365236C5196
:102440006727000E682369236A2364C565F563C5A1
:1024500064F562C563F5626B23502002F3C46BF52B
:10246000F4C46CF56B5162276C516323000E642336
:10247000000E652324501F02F3C46BF5F4C46CF501
:102480006B5162276C516323000E6423000E652399
:1024900064C565F563C564F562C563F5626B235079
:1024A0001F02F3C46BF5F4C46CF56B5162276C51D9
:1024B0006323000E6423000E652325502002F3C41D
:1024C0006BF5F4C46CF56B5167276C516823000EF3
:1024D0006923000E6A2324502102F3C46BF5F4C46F
:1024E0006CF56B5167276C516823000E6923000E51
:1024F0006A2325502102F3C46BF5F4C46CF56B51CB
:10250000276E6C51286E296A2A6A29C52AF528C5C2
:1025100029F527C528F5276A2750672728506823FB
:10252000295069232A506A2362C527F563C528F517
:1025300064C529F565C52AF5190EA4EF92F0D89067
:102540002A32293228322732E82E9FEF92F0275084
:10255000672728506823295069232A506A2364C5B5
:1025600065F563C564F562C563F5626B615166C567
:1025700027F5286A2726000E2822820E27246B6F53
:10258000FF0E28206C6FDAEF92F0D890673768372B
:1025900069376A3765AFCFEF92F0D1EF92F0D2EFA3
:1025A00092F06781D89062376337643765376B077D
:1025B000D8A06C0769AFDFEF92F0E1EF92F0C5EFC2
:1025C00092F0616B65AFE7EF92F0E9EF92F00DEFFB
:1025D00093F0FF0E6215276EFF0E6315286EFF0E37
:1025E0006415296E7F0E65152A6E27502810291054
:1025F0002A10D8B4FEEF92F000EF93F004EF93F0BE
:10260000010E616F0DEF93F067A109EF93F00BEFEF
:1026100093F00DEF93F000EF93F06151D8B413EF06
:1026200093F015EF93F039EF93F0010E6727000E4A
:10263000682369236A236AA120EF93F022EF93F0C5
:1026400039EF93F067C527F568C528F569C529F501
:102650006AC52AF52A342A3229322832273227C578
:1026600067F528C568F529C569F52AC56AF56B4B74
:102670006C2B6CBF44EF93F06C5108E16B29D8A030
:1026800044EF93F046EF93F050EF93F0000E676F36
:10269000000E686F800E696F7F0E6A6F7DEF93F09A
:1026A0006CBF5DEF93F06C5106E16B05D8B05BEF4A
:1026B00093F05DEF93F068EF93F0000E676F000EFC
:1026C000686F000E696F000E6A6F606B7DEF93F0AC
:1026D0006BC566F5FF0E6717FF0E68177F0E69174B
:1026E000000E6A1766A177EF93F079EF93F07AEF17
:1026F00093F0698FD89066316A6F60516A1367C52D
:102700001FF568C520F569C521F56AC522F51200D7
:102710000501FE51D8A48FEF93F091EF93F093EF62
:1027200093F08FEF95F0B50E1D6E050E1E6EB70E71
:102730001F6E050E206EB90E216E050E226EC10EA3
:10274000236E050E246EBB0E256E050E266EBD0E85
:10275000276E050E286EBF0E296E050E2A6EA4EC9C
:10276000A2F085C679F586C67AF587C67BF588C658
:102770007CF5B5C511F5B6C512F5000E12BEFF0EFB
:10278000136E146E010ECAECA1F011C575F512C5D9
:1027900076F513C577F514C578F5BFECB0F075C5BF
:1027A0009AF576C59BF577C59CF578C59DF5E2C68B
:1027B0009EF5E3C69FF5E4C6A0F5E5C6A1F55CEC81
:1027C00099F0B3C5D9F4B4C5DAF405019AC5DEF4BD
:1027D0009BC5DEF49CC5DEF49DC5DEF489C679F5A3
:1027E0008AC67AF58BC67BF58CC67CF5B7C511F524
:1027F000B8C512F5000E12BEFF0E136E146E010E58
:10280000CAECA1F011C575F512C576F513C577F5BB
:1028100014C578F5BFECB0F075C59AF576C59BF593
:1028200077C59CF578C59DF5E2C69EF5E3C69FF594
:10283000E4C6A0F5E5C6A1F55CEC99F0050120EE33
:1028400004F0B351D926B451DA229AC5DEF49BC5FF
:10285000DEF49CC5DEF49DC5DEF48DC679F58EC62A
:102860007AF58FC67BF590C67CF5B9C511F5BAC56A
:1028700012F5000E12BEFF0E136E146E010ECAEC9E
:10288000A1F011C575F512C576F513C577F514C518
:1028900078F5BFECB0F075C59AF576C59BF577C5B0
:1028A0009CF578C59DF5E2C69EF5E3C69FF5E4C6A6
:1028B000A0F5E5C6A1F55CEC99F0050120EE08F065
:1028C000B351D926B451DA229AC5DEF49BC5DEF4A1
:1028D0009CC5DEF49DC5DEF479C679F57AC67AF535
:1028E0007BC67BF57CC67CF5BBC511F5BCC512F576
:1028F000000E12BEFF0E136E146E010ECAECA1F094
:1029000011C575F512C576F513C577F514C578F5BB
:10291000BFECB0F075C59AF576C59BF577C59CF50B
:1029200078C59DF5DEC69EF5DFC69FF5E0C6A0F52D
:10293000E1C6A1F55CEC99F0050120EE0CF0B35175
:10294000D926B451DA229AC5DEF49BC5DEF49CC5C3
:10295000DEF49DC5DEF47DC679F57EC67AF57FC6C8
:102960007BF580C67CF5BDC511F5BEC512F5000E20
:1029700012BEFF0E136E146E010ECAECA1F011C54B
:1029800075F512C576F513C577F514C578F5BFEC66
:10299000B0F075C59AF576C59BF577C59CF578C5F9
:1029A0009DF5DEC69EF5DFC69FF5E0C6A0F5E1C643
:1029B000A1F55CEC99F0050120EE10F0B351D92699
:1029C000B451DA229AC5DEF49BC5DEF49CC5DEF470
:1029D0009DC5DEF481C679F582C67AF583C67BF59E
:1029E00084C67CF5BFC511F5C0C512F5000E12BE38
:1029F000FF0E136E146E010ECAECA1F011C575F531
:102A000012C576F513C577F514C578F5BFECB0F0AF
:102A100075C59AF576C59BF577C59CF578C59DF586
:102A2000DEC69EF5DFC69FF5E0C6A0F5E1C6A1F5BE
:102A30005CEC99F0050120EE14F0B351D926B451A5
:102A4000DA229AC5DEF49BC5DEF49CC5DEF49DC592
:102A5000DEF4000E9E6F000E9F6FAA0EA06F430E55
:102A6000A16FC1C511F5C2C512F5000E12BEFF0E51
:102A7000136E146E010ECAECA1F011C59AF512C5C1
:102A80009BF513C59CF514C59DF55CEC99F09AC5B2
:102A90006DF59BC56EF59CC56FF59DC570F5B80EBF
:102AA0000501716F1E0E726F120E736F420E746FFE
:102AB00018EC8FF0050120EE18F0B351D926B4516F
:102AC000DA226DC5DEF46EC5DEF46FC5DEF470C5C6
:102AD000DEF4B3C5D9F4B4C5DAF411EE00F30B0E8D
:102AE000DBC4E3F4E806FCE220EE0CF0B351D92697
:102AF000B451DA2211EE0CF30B0EDBC4E3F4E8065A
:102B0000FCE220EE18F0B351D926B451DA22DEC42B
:102B100018F7DEC419F7DEC41AF7DEC41BF712007B
:102B200075C596F576C597F577C598F578C599F585
:102B3000000E05019615796F000E97157A6F800EBD
:102B400098157B6F7F0E99157C6F800E7B1909E1BC
:102B50007F0E7C1979117A11D8A4B1EF95F0B3EFFB
:102B600095F0E3EF95F0FF0E9615796FFF0E971530
:102B70007A6F7F0E98157B6F000E99157C6F7951D7
:102B80007A117B117C11D8A4C8EF95F0CAEF95F0AB
:102B9000D1EF95F099BFD1EF95F0CFEF95F0D9EF48
:102BA00095F0FF0E9613FF0E97137F0E9813000EED
:102BB000991396C575F597C576F598C577F599C5B6
:102BC00078F581EF97F099BFF2EF95F09951981150
:102BD000971106E19605D8B0F0EF95F0F2EF95F079
:102BE0002AEF96F0FF0E9615796FFF0E97157A6F04
:102BF000FF0E98157B6F7F0E99157C6F79517A11B6
:102C00007B117C11D8A407EF96F009EF96F013EF33
:102C100096F0000E756F000E766F000E776F000E47
:102C2000786F81EF97F099BF1AEF96F018EF96F052
:102C30002AEF96F0000E0601CB6F210ECA6FFF0E31
:102C40000501966FFF0E976FFF0E986F7F0E996FBD
:102C5000D9EF95F0170E796F96C57AF597C57BF584
:102C600098C57CF599C57DF5796739EF96F041EF08
:102C700096F07D357D337C337B337A33792F34EF97
:102C800096F07AC58EF57BC58FF57CC590F57DC530
:102C900091F505018E518F1190119111D8A453EF28
:102CA00096F055EF96F085EF96F0000E826F000ECD
:102CB000836F000E846F000E856F6AEF96F0D890D8
:102CC0009637973798379937010E8227000E83235E
:102CD0008423852398AF6FEF96F071EF96F05FEF46
:102CE00096F0FF0E8225796FFF0E83217A6FFF0E1B
:102CF00084217B6FFF0E85217C6F79518E5F7A5125
:102D00008F5B7B51905B7C51915B810E8E27FF0E18
:102D10008F23FF0E9023FF0E9123FF0E9615796FE0
:102D2000FF0E97157A6F7F0E98157B6F000E991521
:102D30007C6F000E7911966F000E7A11976F800EDE
:102D40007B11986F000E7C11996F8EA1AAEF96F0FF
:102D5000ACEF96F0B4EF96F09651962797519723E3
:102D600098519823995199239135913390338F330A
:102D70008E339651962797519723985198239951BE
:102D80009923000E7E6F000E7F6F000E806F000E85
:102D9000816F7EC586F57FC587F580C588F581C5BD
:102DA00089F5000E926F000E936F000E946F010E66
:102DB000956F23EF97F07E5192258A6F7F51932173
:102DC0008B6F805194218C6F815195218D6F8A5129
:102DD000965D8B5197598C5198599951800A796F0A
:102DE0008D51800A7959D8A0F8EF96F0FAEF96F055
:102DF00016EF97F08A5192257E6F8B5193217F6F4A
:102E00008C519421806F8D519521816F8A51965FED
:102E10008B51975B8C51985B8D51995B92518627B2
:102E2000935187239451882395518923965196274E
:102E3000975197239851982399519923D890953376
:102E40009433933392339251931194119511D8A4E2
:102E50002CEF97F02EEF97F0DBEF96F0965197114D
:102E600098119911D8B437EF97F039EF97F04DEFEB
:102E700097F0010E8615796F000E87157A6F000E98
:102E800088157B6F000E89157C6F795186277A51E2
:102E900087237B5188237C51892386C579F587C593
:102EA0007AF588C57BF589C57CF57C357C337B3329
:102EB0007A337933000E7925966F000E7A21976F59
:102EC000000E7B21986F3F0E7C21996F8EC579F59E
:102ED0008FC57AF590C57BF591C57CF5170ED89016
:102EE00079377A377B377C37E82E6FEF97F0795157
:102EF00096277A5197237B5198237C519923D9EFB8
:102F000095F012000501FE51D8A489EF97F08BEFE0
:102F100097F08DEF97F05BEF99F0000EB96F000E10
:102F2000BA6F000EBB6F000EBC6F000EBD6F000EBF
:102F3000BE6F000EBF6F000EC06F000EC16F000E9F
:102F4000C26F000EC36F000EC46F000EC56F000E7F
:102F5000C66F000EC76F000EC86F000EC96F000E5F
:102F6000CA6F000ECB6F000ECC6F000ECD6F000E3F
:102F7000CE6F000ECF6F000ED06F000EDE6F000E12
:102F8000DD6FD10E1D6E050E1E6ED30E1F6E050E6B
:102F9000206ED50E216E050E226EB70E236E050E25
:102FA000246ED70E256E050E266ED90E276E050EE1
:102FB000286EDB0E296E050E2A6EA4ECA2F0D1C598
:102FC000B3F5D2C5B4F5000E0501B4BFFF0EB56F61
:102FD000B66FB351B927B451BA23B551BB23B6511B
:102FE000BC23D3C5B3F5D4C5B4F5000EB4BFFF0EF2
:102FF000B56FB66FB351BD27B451BE23B551BF23D2
:10300000B651C023D5C5B3F5D6C5B4F5000EB4BFCF
:10301000FF0EB56FB66FB351C127B451C223B5517E
:10302000C323B651C423D7C5B3F5D8C5B4F5000E34
:10303000B4BFFF0EB56FB66FB351C527B451C623E9
:10304000B551C723B651C823D9C5B3F5DAC5B4F510
:10305000000EB4BFFF0EB56FB66FB351C927B451A0
:10306000CA23B551CB23B651CC23DBC5B3F5DCC5A0
:10307000B4F5000EB4BFFF0EB56FB66FB351CD27D8
:10308000B451CE23B551CF23B651D023D00E050174
:10309000B36FC90EE82EFED7B32FFCD700D00501C1
:1030A000DD4BDE2BDE5109E1640EDD5DD8A05BEF68
:1030B00098F05DEF98F0C1EF97F0B9C511F5BAC57A
:1030C00012F5BBC513F5BCC514F5010ECAECA1F091
:1030D00011C59AF512C59BF513C59CF514C59DF550
:1030E000000E05019E6F000E9F6FC80EA06F420E6E
:1030F000A16F5CEC99F09AC585F69BC586F69CC5D8
:1031000087F69DC588F6BDC511F5BEC512F5BFC5CC
:1031100013F5C0C514F5010ECAECA1F011C59AF55E
:1031200012C59BF513C59CF514C59DF5000E050150
:103130009E6F000E9F6FC80EA06F420EA16F5CECD9
:1031400099F09AC589F69BC58AF69CC58BF69DC5F4
:103150008CF6C1C511F5C2C512F5C3C513F5C4C5BA
:1031600014F5010ECAECA1F011C59AF512C59BF534
:1031700013C59CF514C59DF5000E05019E6F000E4C
:103180009F6FC80EA06F420EA16F5CEC99F09AC5BC
:103190008DF69BC58EF69CC58FF69DC590F6C5C570
:1031A00011F5C6C512F5C7C513F5C8C514F5010E4E
:1031B000CAECA1F011C59AF512C59BF513C59CF593
:1031C00014C59DF5000E05019E6F000E9F6FC80E81
:1031D000A06F420EA16F5CEC99F09AC579F69BC581
:1031E0007AF69CC57BF69DC57CF6C9C511F5CAC5A6
:1031F00012F5CBC513F5CCC514F5010ECAECA1F040
:1032000011C59AF512C59BF513C59CF514C59DF51E
:10321000000E05019E6F000E9F6FC80EA06F420E3C
:10322000A16F5CEC99F09AC57DF69BC57EF69CC5B6
:103230007FF69DC580F6CDC511F5CEC512F5CFC57B
:1032400013F5D0C514F5010ECAECA1F011C59AF51D
:1032500012C59BF513C59CF514C59DF5000E05011F
:103260009E6F000E9F6FC80EA06F420EA16F5CECA8
:1032700099F09AC581F69BC582F69CC583F69DC5DB
:1032800084F68DC675F58EC676F58FC677F590C631
:1032900078F5E2C679F5E3C67AF5E4C67BF5E5C6CE
:1032A0007CF5BFECB0F075C58DF676C58EF677C5AA
:1032B0008FF678C590F6120005019D51800BAA6F1C
:1032C0009D519D25B16F9CAF68EF99F06AEF99F021
:1032D0006BEF99F0B181B151D8B471EF99F073EF00
:1032E00099F087EF99F0B129D8A479EF99F07BEFA5
:1032F00099F083EF99F0000E9A6F000E9B6F000E0D
:103300009C6F000E9D6F9C8F9D6B8FEF99F0000E50
:103310009A6F000E9B6F000E9C6F000E9D6FA15167
:10332000800BAA1BA151A125B26FA0AF9AEF99F013
:103330009CEF99F09DEF99F0B281B251D8B4A3EF10
:1033400099F0A5EF99F0B9EF99F0B229D8A4ABEFB5
:1033500099F0ADEF99F0B5EF99F0000E9E6F000E69
:103360009F6F000EA06F000EA16FA08FA16BC1EF29
:1033700099F0000E9E6F000E9F6F000EA06F000E62
:10338000A16F9E519F11A011A111D8A4CAEF99F06D
:10339000CCEF99F0E4EF99F0000E9A6F000E9B6F5E
:1033A000000E9C6F000E9D6F800E9C137F0E9D1370
:1033B000AA519D139AC59AF59BC59BF59CC59CF592
:1033C0009DC59DF524EF9BF0B151D8A4EAEF99F08B
:1033D000ECEF99F0F6EF99F0000E9A6F000E9B6FEC
:1033E000000E9C6F000E9D6F24EF9BF0B251B1C593
:1033F000A2F5A36BA25F000EA35B7F0EA225AB6FAD
:10340000000EA321AC6F9AC5A6F59BC5A7F59CC578
:10341000A8F59DC5A9F5000E9A6F000E9B6F000ED2
:103420009C6F000E9D6F000EAD6F000EAE6F000E14
:10343000AF6F000EB06FB26B56EF9AF0B251D8B4C6
:1034400024EF9AF026EF9AF03DEF9AF0D890A63745
:10345000A737A837A937D8909A379B379C379D371D
:10346000B0AF35EF9AF037EF9AF038EF9AF09A81D3
:10347000D890AD37AE37AF37B0379E51A65D9F516C
:10348000A759A051A859A151A959D8A04AEF9AF01B
:103490004CEF9AF055EF9AF0B08D9E51A65F9F5178
:1034A000A75BA051A85BA151A95BB22B190EB26515
:1034B0005CEF9AF05EEF9AF01EEF9AF0A651A7111A
:1034C000A811A911D8B467EF9AF069EF9AF081EFCB
:1034D0009AF0AD8181EF9AF0D8909A379B379C375C
:1034E0009D37B0AF76EF9AF078EF9AF079EF9AF0D7
:1034F0009A81D890AD37AE37AF37B037AB07D8A089
:10350000AC079CAF86EF9AF088EF9AF06CEF9AF0D8
:10351000B26BB0AF8EEF9AF090EF9AF0B4EF9AF0F2
:10352000FF0EAD15A26FFF0EAE15A36FFF0EAF1508
:10353000A46F7F0EB015A56FA251A311A411A51100
:10354000D8B4A5EF9AF0A7EF9AF0ABEF9AF0010E7E
:10355000B26FB4EF9AF09AA1B0EF9AF0B2EF9AF08E
:10356000B4EF9AF0A7EF9AF0B251D8B4BAEF9AF04C
:10357000BCEF9AF0E0EF9AF0010E9A27000E9B2321
:103580009C239D239DA1C7EF9AF0C9EF9AF0E0EF2D
:103590009AF09AC5A2F59BC5A3F59CC5A4F59DC557
:1035A000A5F5A535A533A433A333A233A2C59AF557
:1035B000A3C59BF5A4C59CF5A5C59DF5AB4BAC2B50
:1035C000ACBFEBEF9AF0AC5108E1AB29D8A0EBEF20
:1035D0009AF0EDEF9AF0F8EF9AF0000EAC6FAB694D
:1035E000000E9A6F000E9B6F000E9C6F000E9D6F79
:1035F000ACBF05EF9BF0AC5106E1AB05D8B003EFD3
:103600009BF005EF9BF012EF9BF0000EAC6F000EED
:10361000AB6F000E9A6F000E9B6F000E9C6F000E3A
:103620009D6FAA6BABC5B1F5B1A119EF9BF01BEF74
:103630009BF01EEF9BF09C8F1FEF9BF09C9FD89000
:10364000B1319D6FD8EF99F01200050120EE08F01E
:10365000F951D926FA51DA22DEC4EDF5DEC4EEF5D1
:10366000DEC4EFF5DEC4F0F520EE04F0F951D92602
:10367000FA51DA22DEC4E9F5DEC4EAF5DEC4EBF580
:10368000DEC4ECF505EC8CF0E9C519F6EAC51AF6CE
:10369000EBC51BF6ECC51CF6000E236E000E246E67
:1036A000340E256E430E266E19C61FF51AC620F578
:1036B0001BC621F51CC622F574EC91F01FC59AF5C6
:1036C00020C59BF521C59CF522C59DF5DB0E0501A6
:1036D0009E6F0F0E9F6F490EA06F400EA16F5CECA6
:1036E00099F09AC529F69BC52AF69CC52BF69DC56F
:1036F0002CF6050120EE08F0F951D926FA51DA220C
:10370000DEC423F5DEC424F5DEC425F5DEC426F5CB
:1037100020EE08F0F951D926FA51DA22DEC41FF55D
:10372000DEC420F5DEC421F5DEC422F574EC91F090
:103730001FC571F520C572F521C573F522C574F555
:10374000050120EE04F0F951D926FA51DA22DEC43F
:1037500023F5DEC424F5DEC425F5DEC426F520EE0F
:1037600004F0F951D926FA51DA22DEC41FF5DEC47D
:1037700020F5DEC421F5DEC422F574EC91F01FC5FE
:103780006DF520C56EF521C56FF522C570F518ECF5
:103790008FF06DC575F56EC576F56FC577F570C59B
:1037A00078F590EC95F075C51DF676C51EF677C5D3
:1037B0001FF678C520F6F9C5D9F4FAC5DAF4DEC4E7
:1037C00011F5DEC412F5DEC413F5DEC414F5D6EC33
:1037D000B1F011C521F612C522F613C523F614C5A2
:1037E00024F61DC6EDF51EC6EEF51FC6EFF520C684
:1037F000F0F521C6E9F522C6EAF523C6EBF524C6A5
:10380000ECF505EC8CF0E9C525F6EAC526F6EBC526
:1038100027F6ECC528F6000E236E000E246E340E3B
:10382000256E430E266E25C61FF526C620F527C633
:1038300021F528C622F574EC91F01FC59AF520C534
:103840009BF521C59CF522C59DF5DB0E05019E6FFC
:103850000F0E9F6F490EA06F400EA16F5CEC99F0A8
:103860009AC52DF69BC52EF69CC52FF69DC530F644
:10387000000E0501756F000E766F700E776F410EAA
:10388000786F29C679F52AC67AF52BC67BF52CC642
:103890007CF525ECA6F00501D8B051EF9CF053EF74
:1038A0009CF056EF9CF0040EC1EF9CF029C675F514
:1038B0002AC676F52BC677F52CC678F5000E796FFB
:1038C000000E7A6F700E7B6FC10E7C6F25ECA6F038
:1038D0000501D8B06EEF9CF070EF9CF073EF9CF098
:1038E000030EC1EF9CF0000E756F000E766F700E28
:1038F000776F410E786F2DC679F52EC67AF52FC6F3
:103900007BF530C67CF525ECA6F00501D8B08BEF31
:103910009CF08DEF9CF090EF9CF0010EC1EF9CF0BD
:103920002DC675F52EC676F52FC677F530C678F517
:10393000000E796F000E7A6F700E7B6FC10E7C6F78
:1039400025ECA6F00501D8B0A8EF9CF0AAEF9CF0FA
:10395000ADEF9CF0020EC1EF9CF0F9C5BBF5FAC5C6
:10396000BCF507ECA0F00601316F3151D8B4BBEFC4
:103970009CF0BDEF9CF0C0EF9CF03151C1EF9CF08A
:10398000000E120002C6D9F403C6DAF4DEC4F6F45F
:10399000DDC4F7F4000EF86E0800F550250AD8A42F
:1039A000D4EF9CF0D6EF9CF0D1EF9DF002C6D9F495
:1039B00003C6DAF4DE2A000EDD22000E0601CD6F0A
:1039C000000ECC6FCCC6D8F6CE69CF6902C6D9F44A
:1039D00003C6DAF4DEC4F6F4DDC4F7F4000EF86EC4
:1039E0000800F5502E0AD8A4F8EF9CF0FAEF9CF0EE
:1039F0000FEF9DF002C6D9F403C6DAF4DE2A000EFA
:103A0000DD2202C611F503C612F504C613F505C67C
:103A100014F59FECA7F011C5CEF612C5CFF602C67D
:103A2000D9F403C6DAF4DEC40BF6DDC40CF60BC61B
:103A3000F6F40CC6F7F4000EF86E0800F5C40AF6AA
:103A40002DEF9DF00B4B0C2B3DEF9DF06C0E0A6F94
:103A50003DEF9DF00A6B3DEF9DF006010A514C0AC7
:103A6000D8B422EF9DF02A0AD8B426EF9DF00A0AB6
:103A7000D8B422EF9DF02AEF9DF00BC6F6F40CC6E9
:103A8000F7F4000EF86E0800F550660AD8A44BEF64
:103A90009DF04DEF9DF0C8EF9DF083EF9DF004C6C3
:103AA000D9F405C6DAF4DFC4FCF5040EDE26DFC463
:103AB000FDF5000EDD22FCC5D9F4FDC5DAF4DEC447
:103AC00006F6DEC407F6DEC408F6DEC409F68EEF9D
:103AD0009DF004C6D9F405C6DAF4DFC4FCF5040E83
:103AE000DE26DFC4FDF5000EDD22FCC5D9F4FDC5E0
:103AF000DAF4DEC406F6DEC407F6DEC408F6DEC479
:103B000009F68EEF9DF00A514C0AD8B469EF9DF08A
:103B1000200AD8B44FEF9DF08EEF9DF0010E0B25DB
:103B20000501FC6F000E06010C210501FD6F02C6A8
:103B3000D9F403C6DAF4FCC5DEF4FDC5DDF4BAEF52
:103B40009DF000C6C7F501C6C8F506C6C9F507C68B
:103B5000CAF508C6CBF509C6CCF50BC6F6F40CC6FB
:103B6000F7F4000EF86E0800F5C4CDF500EC80F017
:103B7000E7EF9DF00BC6F6F40CC6F7F4000EF86EF6
:103B80000800F550660AD8B4A1EF9DF0C8EF9DF08B
:103B900002C6D9F403C6DAF4DE2A000EDD22E7EF0E
:103BA0009DF002C6D9F403C6DAF4DEC4F6F4DDC42F
:103BB000F7F4000EF86E0800F550116E126A00C698
:103BC00013F501C614F505ECA8F0C8EF9DF012003E
:103BD000000E0501836F000E846F000E856F000ECE
:103BE000866F1DEF9EF083C575F584C576F585C596
:103BF00077F586C578F50501832B000E8423852390
:103C00008623785177110BE1510E755DC30E7659FD
:103C1000D8A00DEF9EF00FEF9EF019EF9EF0000E72
:103C2000716F000E726F000E736F000E746FFBEFFA
:103C30009EF0050EE82EFED70000CEBA22EF9EF0D1
:103C400024EF9EF0F3EF9DF0000E0501836F000E50
:103C5000846F000E856F000E866F51EF9EF083C556
:103C600075F584C576F585C577F586C578F50501C2
:103C7000832B000E842385238623785177110BE153
:103C8000A90E755D610E7659D8A049EF9EF04BEFF5
:103C90009EF04DEF9EF00FEF9EF0050EE82EFED742
:103CA0000000CEAA56EF9EF058EF9EF02FEF9EF048
:103CB00082ECB3F011C57FF512C580F5000E050149
:103CC000836F000E846F000E856F000E866F8BEF82
:103CD0009EF083C575F584C576F585C577F586C5EF
:103CE00078F50501832B000E8423852386237851E4
:103CF00077110BE1A90E755D610E7659D8A083EF9F
:103D00009EF085EF9EF087EF9EF00FEF9EF0050E80
:103D1000E82EFED70000CEBA90EF9EF092EF9EF014
:103D200069EF9EF082ECB3F011C581F512C582F502
:103D300005017F51815D80518259D8B0A2EF9EF07C
:103D4000A4EF9EF0C0EF9EF07F1D756F801D766F13
:103D500075518125776F76518221786F796BD8B054
:103D6000792B7A6B010E77257B6F000E78217C6FA3
:103D7000000E79217D6F000E7A217E6FCCEF9EF0D0
:103D80007F51815D756F80518259766F75C57BF566
:103D900076C57CF57D6B7E6B000E236E000E246E67
:103DA000000E256E3F0E266E7BC511F57CC512F503
:103DB0007DC513F57EC514F5000ECAECA1F011C542
:103DC0001FF512C520F513C521F514C522F574ECB5
:103DD00091F01FC56DF520C56EF521C56FF522C5A3
:103DE00070F5A1ECA5F06DC571F56EC572F56FC5E6
:103DF00073F570C574F5120091C6C3F592C6C4F58B
:103E000093C6C5F594C6C6F5B3C5C3F5B4C5C4F528
:103E1000B5C5C5F5B6C5C6F5810E0501B76FFF0E70
:103E2000B86FC3C5B9F5C4C5BAF5C5C5BBF5C6C538
:103E3000BCF5180E21EF9FF0D890BC33BB33BA33DA
:103E4000B933E82E1CEF9FF0B951B725C16F000EB2
:103E5000B821C26FC2BF36EF9FF0C25109E1170E01
:103E6000C15DD8A036EF9FF038EF9FF042EF9FF092
:103E7000B3C5B3F5B4C5B4F5B5C5B5F5B6C5B6F5B6
:103E800006EFA0F0C2BF47EF9FF049EF9FF0BAEFF7
:103E90009FF0C1C5B7F5FF0EB86FFF0EB96F7F0E6B
:103EA000BA6F000EBB6FB76758EF9FF060EF9FF0DF
:103EB000BB35BB33BA33B933B833B72F53EF9FF0A9
:103EC000B8C5BDF5B9C5BEF5BAC5BFF5BBC5C0F52A
:103ED0000501BD51C315B76FBE51C415B86FBF51B1
:103EE000C515B96FC051C615BA6FB751B811B91120
:103EF000BA11D8A47EEF9FF080EF9FF082EF9FF081
:103F000038EF9FF0C3C5B7F5C4C5B8F5C5C5B9F559
:103F1000C6C5BAF5200E92EF9FF0D890BA33B933E8
:103F2000B833B733E82E8DEF9FF0B751B811B91100
:103F3000BA11D8B49EEF9FF0A0EF9FF0A8EF9FF0CA
:103F4000BD51C327BE51C423BF51C523C051C62391
:103F5000BD1DB76FBE1DB86FBF1DB96FC01DBA6F55
:103F6000B751C317B851C417B951C517BA51C617BD
:103F7000FEEF9FF0C3C5B7F5C4C5B8F5C5C5B9F523
:103F8000C6C5BAF5200ECAEF9FF0D890BA33B93340
:103F9000B833B733E82EC5EF9FF0B751B811B91158
:103FA000BA11D8A4D6EF9FF0D8EF9FF0E2EF9FF0C0
:103FB000000EC36F000EC46F000EC56F000EC66FFB
:103FC000FEEF9FF0D890C335B76FC435B86FC535D5
:103FD000B96FC635BA6FB751B811B911BA11D8B4A3
:103FE000F4EF9FF0F6EF9FF0FEEF9FF0000EC36F2F
:103FF000000EC46F800EC56FBF0EC66FC3C5B3F58C
:10400000C4C5B4F5C5C5B5F5C6C5B6F51200BBC582
:10401000D9F4BCC5DAF4DEC4B3F5DEC4B4F5DEC44D
:10402000B5F5DEC4B6F5F2ECB1F0B3C5C1F5B4C573
:10403000C2F5B5C5C3F5B6C5C4F5050120EE04F05B
:10404000BB51D926BC51DA22DEC4B3F5DEC4B4F5C7
:10405000DEC4B5F5DEC4B6F5F2ECB1F0B3C5C5F516
:10406000B4C5C6F5B5C5C7F5B6C5C8F5050120EE9A
:1040700008F0BB51D926BC51DA22DEC4B3F5DEC448
:10408000B4F5DEC4B5F5DEC4B6F5F2ECB1F0B3C5F7
:10409000C9F5B4C5CAF5B5C5CBF5B6C5CCF5000EA6
:1040A0000501756F000E766FC00E776F3F0E786F4B
:1040B000C1C579F5C2C57AF5C3C57BF5C4C57CF524
:1040C00025ECA6F00501D8A068EFA0F06AEFA0F0FB
:1040D0009EEFA0F0000E756F000E766FC00E776F2A
:1040E0003F0E786FC5C579F5C6C57AF5C7C57BF5AE
:1040F000C8C57CF525ECA6F00501D8A082EFA0F09C
:1041000084EFA0F09EEFA0F0000E756F000E766FAA
:10411000C00E776F3F0E786FC9C579F5CAC57AF5BD
:10412000CBC57BF5CCC57CF525ECA6F00501D8B058
:104130009CEFA0F09EEFA0F0A1EFA0F0090EECEF35
:10414000A0F0C5C571F5C6C572F5C7C573F5C8C57C
:1041500074F5C1C56DF5C2C56EF5C3C56FF5C4C5AF
:1041600070F518EC8FF06DC5BDF56EC5BEF56FC569
:10417000BFF570C5C0F5000E0501756F000E766FB6
:10418000400E776F400E786FC9C571F5CAC572F5DC
:10419000CBC573F5CCC574F5BDC56DF5BEC56EF563
:1041A000BFC56FF5C0C570F518EC8FF06DC579F51A
:1041B0006EC57AF56FC57BF570C57CF525ECA6F06C
:1041C0000501D8B0E6EFA0F0E8EFA0F0EBEFA0F02B
:1041D0000A0EECEFA0F0000E12000501626F62C53E
:1041E00011F5000E27ECA7F030C511F5010E27ECF4
:1041F000A7F0680E0501606FE40EE82EFED7602F71
:10420000FCD70000020E2E6EBB0E2D6E000E3BEC96
:10421000AAF0020E2E6EBB0E2D6E010E3BECAAF024
:10422000190E0501616F5A0E606FB10EE82EFED7B0
:10423000602FFCD7612FFAD700D0020E0501686FFE
:10424000BB0E676FBCEFA1F06751315C685132580B
:10425000D8B02DEFA1F02FEFA1F06AEFA1F031500F
:10426000675D606F32506859616F615109E1050EF9
:10427000605DD8A03EEFA1F040EFA1F050EFA1F0BB
:1042800067C511F568C512F5000E146E140E136E95
:10429000F5ECADF011C563F512C564F554EFA1F06E
:1042A000000E646F010E636F05016351675F645117
:1042B000685B3150675D32506859D8B062EFA1F049
:1042C00064EFA1F0A1EFA1F031C567F532C568F543
:1042D000A1EFA1F06751315C606F68513258616F96
:1042E000615109E1050E605DD8A079EFA1F07BEF87
:1042F000A1F08BEFA1F067C511F568C512F5000EAE
:10430000146E140E136EF5ECADF011C565F512C503
:1043100066F58FEFA1F0000E666F010E656F050167
:1043200065516727665168236751315C685132587F
:10433000D8B09DEFA1F09FEFA1F0A1EFA1F064EF45
:10434000A1F067C52DF568C52EF5000E3BECAAF06F
:1043500067C52DF568C52EF5010E3BECAAF0020EDF
:104360000501616FA00E606F920EE82EFED7602FE0
:10437000FCD7612FFAD7000031500501671907E11A
:1043800032506819D8A4C7EFA1F0C9EFA1F024EF0B
:10439000A1F01200196E1950D8B4D1EFA1F0D3EFEB
:1043A000A1F0F5EFA1F014BEDAEFA1F0D8EFA1F083
:1043B000F5EFA1F011C515F512C516F513C517F5E2
:1043C00014C518F5151E161E171E181E152A000EE8
:1043D00016221722182215C51BF516C51CF517C580
:1043E0001DF518C51EF5FDEFA1F011C51BF512C591
:1043F0001CF513C51DF514C51EF511501210131030
:104400001410D8A406EFA2F008EFA2F012EFA2F069
:10441000000E116E000E126E000E136E000E146E62
:10442000A3EFA2F0960E1A6E1CEFA2F01A2AD890F3
:104430001E321D321C321B32000E1B14156E000E74
:104440001C14166E000E1D14176EFE0E1E14186E30
:104450001550161017101810D8A431EFA2F033EF32
:10446000A2F016EFA2F041EFA2F01A2A010E1B26CD
:10447000000E1C221D221E22D8901E321D321C321C
:104480001B32000E1B14156E000E1C14166E000E4F
:104490001D14176EFF0E1E14186E155016101710EF
:1044A0001810D8A456EFA2F058EFA2F035EFA2F002
:1044B00060EFA2F01A06D8901B361C361D361E3649
:1044C0001DBE65EFA2F067EFA2F06FEFA2F0020E43
:1044D0001A606DEFA2F06FEFA2F05AEFA2F01AB0DF
:1044E00074EFA2F076EFA2F077EFA2F01D9ED890C5
:1044F0001A321AC515F5166A176A186A15C518F51D
:10450000176A166A156A15501B1216501C1217509E
:104510001D1218501E121950D8B491EFA2F093EF4B
:10452000A2F09BEFA2F014BE9AEFA2F098EFA2F0D7
:104530009BEFA2F01E8E1BC511F51CC512F51DC503
:1045400013F51EC514F512003B0E05016F6FADEF9C
:10455000A2F0350EE82EFED70000B9ECB2F000094B
:10456000D8A4B5EFA2F0B7EFA2F0A9EFA2F0000E29
:10457000136E680E126E6F0E146E050E156E000E21
:10458000176E010E166E600E186E050E196E000E77
:104590001B6E0E0E1A6EADECAFF005016E6F6E5114
:1045A000D8B4D5EFA2F0D7EFA2F0E7EFA2F0DDEF9D
:1045B000A2F0350EE82EFED70000B9ECB2F00009EB
:1045C000D8A4E5EFA2F0E7EFA2F0D9EFA2F0E40E55
:1045D00000D000D0E82EFCD700D000D005016151FA
:1045E00060C52BF52C6A2BC52CF52B6A2B12000EFF
:1045F0002C121DC5D9F41EC5DAF42BC5DEF42CC56A
:10460000DDF4635162C52BF52C6A2BC52CF52B6AA2
:104610002B12000E2C121FC5D9F420C5DAF42BC5BD
:10462000DEF42CC5DDF4655164C52BF52C6A2BC571
:104630002CF52B6A2B12000E2C1221C5D9F422C5A1
:10464000DAF42BC5DEF42CC5DDF4675166C52BF515
:104650002C6A2BC52CF52B6A2B12000E2C1223C5AD
:10466000D9F424C5DAF42BC5DEF42CC5DDF4695188
:1046700068C52BF52C6A2BC52CF52B6A2B12000E66
:104680002C1225C5D9F426C5DAF42BC5DEF42CC5C9
:10469000DDF46B516AC52BF52C6A2BC52CF52B6A02
:1046A0002B12000E2C1227C5D9F428C5DAF42BC51D
:1046B000DEF42CC5DDF46D516CC52BF52C6A2BC5D1
:1046C0002CF52B6A2B12000E2C1229C5D9F42AC501
:1046D000DAF42BC5DEF42CC5DDF412000601D95145
:1046E000D8A475EFA3F077EFA3F07EEFA3F0000E50
:1046F0000501B46F000EB36F35EFA4F0000E050195
:10470000BA6F000EB96F90EFA3F0150E336EC60EA0
:10471000E82EFED7332EFCD700D00501B94BBA2BBB
:104720000701D0510501B95D0701D1510501BA5901
:10473000D8A09DEFA3F09FEFA3F085EFA3F09FEC2F
:10474000B3F0E8EC9DF071C5A1F672C5A2F673C591
:10475000A3F674C5A4F60601A151A211A311A411D8
:10476000D8A4B5EFA3F0B7EFA3F0C4EFA3F0010E08
:10477000DA6F000E446E000E436E000E0501B46F3A
:10478000000EB36F35EFA4F0A1C611F5A2C612F565
:10479000A3C613F5A4C614F5000ECAECA1F011C50A
:1047A0009AF512C59BF513C59CF514C59DF5000E31
:1047B00005019E6F000E9F6F680EA06F420EA16FE5
:1047C0005CEC99F09AC5B5F59BC5B6F59CC5B7F5F7
:1047D0009DC5B8F5B5C56DF5B6C56EF5B7C56FF530
:1047E000B8C570F5A1ECA5F06DC543F56EC544F5EF
:1047F000445009E1020E435CD8A001EFA4F003EF9E
:10480000A4F00EEFA4F0910E435C010E4458D8A022
:104810000CEFA4F00EEFA4F018EFA4F0020E0601C6
:10482000DA6F000E0501B46F000EB36F35EFA4F020
:104830000601DA6B0701D351D8B421EFA4F023EFBE
:10484000A4F031EFA4F043C517F544C518F52AECE0
:10485000AFF0C9ECA8F02AC5B3F52BC5B4F535EF18
:10486000A4F043C5B3F544C5B4F512004C50020D95
:10487000340EF324D96E070EF420DA6EDE6ADD6A98
:104880000201B2A746EFA4F048EFA4F06AEFA4F04B
:104890004C50020D340EF324D96E070EF420DA6E5C
:1048A0000701DF820601BB51BC11BD11D8B45BEF1B
:1048B000A4F05DEFA4F06AEFA4F002D86AEFA4F0D0
:1048C0000500FA6EBB51FD6EBC51FE6EBD51FF6E10
:1048D000FA5012000201B2A370EFA4F072EFA4F03C
:1048E00094EFA4F04C50020D340EF324D96E070E51
:1048F000F420DA6E0701DF840601B851B911BA114C
:10490000D8B485EFA4F087EFA4F094EFA4F002D818
:1049100094EFA4F00500FA6EB851FD6EB951FE6E29
:10492000BA51FF6EFA5012000201B2AD9AEFA4F034
:104930009CEFA4F0BEEFA4F04C50020D340EF32413
:10494000D96E070EF420DA6E0701DF800601B5513B
:10495000B611B711D8B4AFEFA4F0B1EFA4F0BEEF29
:10496000A4F002D8BEEFA4F00500FA6EB551FD6EBA
:10497000B651FE6EB751FF6EFA501200A1C20CF58F
:104980004C28070B0D6E4B500D18D8A4CAEFA4F09D
:10499000CCEFA4F0CEEFA4F0D9EFA4F04E0E4C244F
:1049A000D96EDA6A070EDA220CC5DFF40DC54CF5B4
:1049B0004A2A0601A951AA11AB11D8B4E2EFA4F01A
:1049C000E4EFA4F0F1EFA4F002D8F1EFA4F00500B9
:1049D000FA6EA951FD6EAA51FE6EAB51FF6EFA50F0
:1049E00012001200090E236E1E0E226EE40EE82E37
:1049F000FED7222EFCD7232EFAD700D0496A495081
:104A00003CECADF0050E236E0F0E226EF10EE82E7B
:104A1000FED7222EFCD7232EFAD70000050E236ED8
:104A20000F0E226EF10EE82EFED7222EFCD7232E7B
:104A3000FAD70000300E496E498649503CECADF083
:104A4000680E226EE40EE82EFED7222EFCD700D090
:104A5000498449503CECADF0050EE82EFED700002D
:104A6000499449503CECADF0680E226EE40EE82EFD
:104A7000FED7222EFCD700D0498449503CECADF043
:104A8000050EE82EFED70000499449503CECADF0ED
:104A9000050E226E260EE82EFED7222EFCD700D061
:104AA000498449503CECADF0050EE82EFED70000DD
:104AB000499449503CECADF0050E226E260EE82ECE
:104AC000FED7222EFCD700D0200E496E49864950D1
:104AD0003CECADF0050EE82EFED7000049844950AD
:104AE0003CECADF0050EE82EFED70000499449508D
:104AF0003CECADF0050E226E260EE82EFED7222EDF
:104B0000FCD700D0280E75ECB0F0A00E00D0E82E37
:104B1000FDD7080E75ECB0F0A00E00D0E82EFDD742
:104B2000DBECB3F0040E75ECB0F0A00E00D0E82E74
:104B3000FDD70C0E75ECB0F0A00E00D0E82EFDD71E
:104B4000120005016F357035306E3050D8A4ABEFD0
:104B5000A5F0ADEFA5F0B7EFA5F0000E6D6F000E5C
:104B60006E6F000E6F6F000E706F24EFA6F06DC5B4
:104B70002BF56EC52CF56FC52DF570C52EF5200EE5
:104B8000C7EFA5F0D8902E322D322C322B32E82EE2
:104B9000C2EFA5F02B502F6E6F8FFF0E6D17FF0E1B
:104BA0006E17FF0E6F17000E7017960E305E30BE38
:104BB000DEEFA5F0DCEFA5F0F4EFA5F03050800AB1
:104BC000970FD8B0E6EFA5F0E8EFA5F0EAEFA5F073
:104BD000ADEFA5F0D89070336F336E336D33303E48
:104BE000EAEFA5F00CEFA6F01F0E3064FAEFA5F087
:104BF000FCEFA5F004EFA6F0ADEFA5F0D8906D376F
:104C00006E376F37703730063050D8A40AEFA6F0F1
:104C10000CEFA6F0FEEFA5F02F50D8B412EFA6F0DF
:104C200014EFA6F01CEFA6F0701F6F1F6E1F6D6DC6
:104C3000000E6E236F2370236DC56DF56EC56EF586
:104C40006FC56FF570C570F51200000E0501751582
:104C50007D6F000E76157E6F800E77157F6F7F0E4D
:104C60007815806F7D517E117F118011D8A43BEFA4
:104C7000A6F03DEFA6F045EFA6F0000E756F000E12
:104C8000766F000E776F000E786F000E79157D6FCE
:104C9000000E7A157E6F800E7B157F6F7F0E7C1560
:104CA000806F7D517E117F118011D8A45AEFA6F03C
:104CB0005CEFA6F064EFA6F0000E796F000E7A6F3D
:104CC000000E7B6F000E7C6F78AF69EFA6F06BEF84
:104CD000A6F074EFA6F0756D761FD8B0762B771F0F
:104CE000D8B0772B800E78577CAF79EFA6F07BEFAA
:104CF000A6F084EFA6F0796D7A1FD8B07A2B7B1FCF
:104D0000D8B07B2B800E7C57000E751B000E761BD7
:104D1000000E771B800E781B000E791B000E7A1B8D
:104D2000000E7B1B800E7C1B7951755D7A51765984
:104D30007B5177597C517859D8B0A1EFA6F0A3EFF9
:104D4000A6F0A6EFA6F0D890A7EFA6F0D8801200A4
:104D500099C61BF59AC61CF59BC61DF59CC61EF58B
:104D600011C51BF512C51CF513C51DF514C51EF59F
:104D70001BC515F51CC516F51DC517F51EC518F57F
:104D8000180EC8EFA6F0D890183217321632153226
:104D9000E82EC3EFA6F01550196E1A6A19501A10B2
:104DA000D8A4D5EFA6F0D7EFA6F0F7EFA6F0D890ED
:104DB0001B34156E1C34166E1D34176E1E34186E9F
:104DC0001550161017101810D8A4E9EFA6F0EBEF45
:104DD000A6F0F1EFA6F0000E126E020E116E26EF95
:104DE000A7F0000E126E030E116E26EFA7F0192821
:104DF0001A10D8A4FEEFA6F000EFA7F022EFA7F05C
:104E00001BC515F51CC516F51DC517F51EC518F5EE
:104E1000090ED8901536163617361836E82E09EFD3
:104E2000A7F01550161017101810D8B41AEFA7F0E5
:104E30001DEFA7F0010E1EEFA7F0000E116E126A13
:104E400026EFA7F0000E126E040E116E1200146E03
:104E50001450D8A42EEFA7F030EFA7F05FEFA7F023
:104E600042EFA7F0C180C19296EFA7F0C190C18236
:104E700096EFA7F0C180C18296EFA7F0C190C192D2
:104E800096EFA7F01150126E136A1350000AD8B4AF
:104E90004CEFA7F03EEFA7F01250000AD8B43EEF57
:104EA000A7F0010AD8B432EFA7F0030AD8B436EF5E
:104EB000A7F0010AD8B43AEFA7F03EEFA7F0140428
:104EC000D8A465EFA7F067EFA7F096EFA7F079EF0A
:104ED000A7F0C184C19696EFA7F0C194C18696EF62
:104EE000A7F0C184C18696EFA7F0C194C19696EF52
:104EF000A7F01150126E136A1350000AD8B483EF52
:104F0000A7F075EFA7F01250000AD8B475EFA7F01C
:104F1000010AD8B469EFA7F0030AD8B46DEFA7F07F
:104F2000010AD8B471EFA7F075EFA7F0410E142471
:104F3000D96EDA6A050EDA2211C5DFF41200000E0E
:104F4000196E000E186E11C5D9F412C5DAF4DEC45C
:104F5000F6F4DDC4F7F4000EF86E0800F5502A0AE6
:104F6000D8A4B5EFA7F0B7EFA7F0EAEFA7F011C507
:104F7000D9F412C5DAF4DE2A000EDD2213C5D9F405
:104F800014C5DAF4DFC415F5020EDE26DFC416F50B
:104F9000000EDD2215C5D9F416C5DAF4DEC418F505
:104FA000DDC419F500EFA8F00A0E1802F3C415F5D8
:104FB000F4C416F51902F350162617501524186E6E
:104FC000000E1620196E11C5D9F412C5DAF4DE2AC6
:104FD000000EDD2211C5D9F412C5DAF4DEC4F6F4F0
:104FE000DDC4F7F4000EF86E0800F550D00F176E10
:104FF000090E1764FEEFA7F000EFA8F0D4EFA7F0BA
:1050000018C511F519C512F5120013501410D8B4B3
:105010000CEFA8F00EEFA8F017EFA8F01350141043
:10502000D8A415EFA8F017EFA8F01CEFA8F01150C6
:105030002DECB5F069EFA8F020EE09F01350D92659
:105040001450DA22DE50DE10D8B429EFA8F02BEF8E
:10505000A8F046EFA8F020EE09F01350D92614501E
:10506000DA2210EE02F01350E1261450E222DE5054
:10507000E65CE650800A196EDE50800A1958D8B0F6
:1050800044EFA8F046EFA8F069EFA8F020EE02F098
:105090001350D9261450DA22DEC415F5DDC416F5F6
:1050A00013C5D9F414C5DAF4DEC417F5DDC418F558
:1050B00015501724D96E16501820DA6E11C5DFF47A
:1050C00020EE02F01350D9261450DA22DE2A000E08
:1050D000DD221200BE6A060EBF6EC06AC16AC26AD5
:1050E000C36A0401026B060E0A6F126B1A6B226B05
:1050F0002A6BC668F90EC76E3B0EC86EE00EC96E0D
:105100000F0ECA6ECB68DF0E006FF90E086FF30E3C
:10511000106FC00E186F070E206F2869016B096BA6
:10512000116B196B216B296B03690B6913691B697F
:10513000070E236F2B6904690C6914691C690F0E33
:10514000246F2C69010E0201896F010E886F876B35
:10515000866B050E3E6F130E726F160E186F150ECE
:10516000176F200E136F090E716F370E0A6F0A0E3C
:10517000706F380E0B6F0401056B066B076B0D6BC0
:105180000E6B0F6B156B166B176B256B266B276BF6
:105190001200000E0501606F000E616F000E626F5D
:1051A000000E636F4750D8A4D8EFA8F0DAEFA8F04C
:1051B000DFEFA8F048C564F5656BE3EFA8F0000EDB
:1051C000656F050E646F64C567F56751D8A4EBEF92
:1051D000A8F0EDEFA8F0F3EFA8F0000E2B6E000E94
:1051E0002A6E27EFA9F0666B0BEFA9F06651020D4E
:1051F000440EF324D96E070EF420DA6EDEC42CF5CB
:10520000DDC42DF52C5060272D506123000E622344
:10521000000E6323662B6751665DD8A012EFA9F0DC
:1052200014EFA9F0F6EFA8F060C51DF561C51EF5F5
:1052300062C51FF563C520F56751216E226A236A96
:10524000246A40ECABF01DC52AF51EC52BF51200F3
:105250000501706F010E05016F6F70514118D8B4D0
:1052600034EFA9F036EFA9F040EFA9F006019D5107
:105270009E11D8A43EEFA9F040EFA9F056EFA9F097
:10528000050169514218D8B448EFA9F04AEFA9F0D6
:1052900054EFA9F006019F51A011D8A452EFA9F034
:1052A00054EFA9F056EFA9F005016F6B05016F519E
:1052B000D8A45DEFA9F060EFA9F0010E61EFA9F0AD
:1052C000000E6E6F6E51D8B468EFA9F06AEFA9F0C6
:1052D00079EFA9F005ECB1F0090E05016D6F1E0E16
:1052E0006C6FE40EE82EFED76C2FFCD76D2FFAD72B
:1052F000000069C530F56AC531F56BC532F50501A9
:105300007051EDECA0F0120054ECB4F00009D8B4E8
:105310008CEFA9F08EEFA9F096EFA9F0030E406E86
:105320000201979B26ECB1F0DEEFA9F05FECB4F040
:105330000009D8B49EEFA9F0A0EFA9F0B2EFA9F050
:1053400033ECB4F00009D8B4A8EFA9F0AAEFA9F0A3
:10535000B2EFA9F0010E406E02019799F4ECB2F0A1
:10536000DEEFA9F03EECB4F00009D8B4BAEFA9F032
:10537000BCEFA9F0CCEFA9F033ECB4F00009D8B43D
:10538000C4EFA9F0C6EFA9F0CCEFA9F0020E406E71
:1053900002019799AEEFA9F049ECB4F00009D8B436
:1053A000D4EFA9F0D6EFA9F0DCEFA9F0030E406E20
:1053B0000201979DDEEFA9F002019799405011007C
:1053C000750EE0ECABF0680AD8B4E9EFA9F0EBEFAA
:1053D000A9F0EEEFA9F0000E3AEFAAF0800E196ED8
:1053E0006B0EFBECACF0090E226E1E0E216EE40E6D
:1053F000E82EFED7212EFCD7222EFAD700D0000EA1
:10540000196E6B0EFBECACF0090E226E1E0E216EB7
:10541000E40EE82EFED7212EFCD7222EFAD700D09C
:10542000070E196E190EFBECACF0030E196E1A0E76
:10543000FBECACF0000E196E1B0EFBECACF0000E9A
:105440000601DE6F000EDF6F030EE06F430EE16FAB
:10545000000E196E1C0EFBECACF0000E0601E26FA4
:10546000000EE36F800EE46F460EE56F010E05013E
:10547000FE6F010E12002F6EE80E2D5C030E2E58EB
:10548000D8A045EFAAF047EFAAF04BEFAAF0030E21
:105490002E6EE70E2D6E2D502E10D8B452EFAAF0BE
:1054A00054EFAAF069EFAAF00F0ECCECAEF02A5040
:1054B0002D5C2B502E58D8B060EFAAF062EFAAF006
:1054C00069EFAAF00F0ECCECAEF02AC52DF52BC576
:1054D0002EF52F50D8A46FEFAAF071EFAAF079EF54
:1054E000AAF02DC511F52EC512F5BAECB1F087EF73
:1054F000AAF02F04D8A47FEFAAF081EFAAF087EFDB
:10550000AAF02DC511F52EC512F59EECB1F02F5065
:10551000020D9D0EF324D96E060EF420DA6E2DC511
:10552000DEF42EC5DDF41200166A12BE9CEFAAF05E
:105530009AEFAAF0A2EFAAF0116C121ED8B0122AAC
:10554000010E166E14BEA9EFAAF0A7EFAAF0ADEFF8
:10555000AAF0136C141ED8B0142A13501410D8B427
:10556000B4EFAAF0B6EFAAF0DAEFAAF0010E156ECA
:10557000BEEFAAF0D89013361436152A14AEC3EF36
:10558000AAF0C5EFAAF0BAEFAAF01350115C1450BC
:105590001258D8A0CEEFAAF0D0EFAAF0D4EFAAF01C
:1055A0001350115E1450125AD89014321332152E23
:1055B000C5EFAAF01650D8B4E0EFAAF0E2EFAAF0D7
:1055C000E6EFAAF0116C121ED8B0122A11C511F51F
:1055D00012C512F51200000E1114196E000E1214ED
:1055E0001A6E800E13141B6E7F0E14141C6E19504D
:1055F0001A101B101C10D8A400EFABF002EFABF098
:105600000AEFABF0000E116E000E126E000E136E5C
:10561000000E146E000E1514196E000E16141A6E7C
:10562000800E17141B6E7F0E18141C6E19501A1062
:105630001B101C10D8A41FEFABF021EFABF029EF2B
:10564000ABF0000E156E000E166E000E176E000EFB
:10565000186E155011180FE1165012180CE1175062
:10566000131809E118501418D8B439EFABF03BEF18
:10567000ABF03EEFABF0D8903FEFABF0D88012002C
:10568000000E256E000E266E000E276E000E286E90
:105690002150221023102410D8B451EFABF053EF57
:1056A000ABF089EFABF0010E296E5DEFABF0D89057
:1056B0002136223623362436292A24AE62EFABF077
:1056C00064EFABF057EFABF0D8902536263627368F
:1056D000283621501D5C22501E5823501F5824503C
:1056E0002058D8A076EFABF078EFABF081EFABF0BD
:1056F00021501D5E22501E5A23501F5A2450205AFA
:105700002580D8902432233222322132292E64EF90
:10571000ABF025C51DF526C51EF527C51FF528C507
:1057200020F51200A2906C0E0601AC6F480EAD6F12
:10573000010EAE6FA2921A0EB26F640EB36F010E1D
:10574000B46F0201A26BA46BA56BA66BA76BA86BD1
